{
  "contractName": "Wallet",
  "abi": [
    {
      "constant": false,
      "inputs": [
        {
          "name": "_userID",
          "type": "bytes32"
        },
        {
          "name": "_certHash",
          "type": "bytes32"
        }
      ],
      "name": "queryCertificates",
      "outputs": [],
      "payable": false,
      "stateMutability": "nonpayable",
      "type": "function"
    },
    {
      "constant": false,
      "inputs": [
        {
          "name": "_userID",
          "type": "bytes32"
        },
        {
          "name": "_certHash",
          "type": "bytes32"
        },
        {
          "name": "state",
          "type": "uint8"
        }
      ],
      "name": "updateCertState",
      "outputs": [],
      "payable": false,
      "stateMutability": "nonpayable",
      "type": "function"
    },
    {
      "constant": false,
      "inputs": [
        {
          "name": "_userID",
          "type": "bytes32"
        }
      ],
      "name": "queryCertificates",
      "outputs": [],
      "payable": false,
      "stateMutability": "nonpayable",
      "type": "function"
    },
    {
      "constant": false,
      "inputs": [
        {
          "name": "_userID",
          "type": "bytes32"
        },
        {
          "name": "_certHash",
          "type": "bytes32"
        },
        {
          "name": "_provider",
          "type": "bytes"
        },
        {
          "name": "_ownerSignatures",
          "type": "bytes"
        }
      ],
      "name": "createCertificate",
      "outputs": [],
      "payable": false,
      "stateMutability": "nonpayable",
      "type": "function"
    },
    {
      "constant": true,
      "inputs": [],
      "name": "owner",
      "outputs": [
        {
          "name": "",
          "type": "address"
        }
      ],
      "payable": false,
      "stateMutability": "view",
      "type": "function"
    },
    {
      "constant": false,
      "inputs": [
        {
          "name": "_name",
          "type": "bytes"
        },
        {
          "name": "_dOB",
          "type": "bytes"
        },
        {
          "name": "_SSN",
          "type": "bytes"
        },
        {
          "name": "_userID",
          "type": "bytes32"
        }
      ],
      "name": "createUser",
      "outputs": [],
      "payable": false,
      "stateMutability": "nonpayable",
      "type": "function"
    },
    {
      "constant": false,
      "inputs": [
        {
          "name": "newOwner",
          "type": "address"
        }
      ],
      "name": "transferOwnership",
      "outputs": [],
      "payable": false,
      "stateMutability": "nonpayable",
      "type": "function"
    },
    {
      "anonymous": false,
      "inputs": [
        {
          "indexed": false,
          "name": "_userID",
          "type": "bytes32"
        },
        {
          "indexed": false,
          "name": "_name",
          "type": "bytes"
        },
        {
          "indexed": false,
          "name": "_dOB",
          "type": "bytes"
        },
        {
          "indexed": false,
          "name": "_SSN",
          "type": "bytes"
        },
        {
          "indexed": false,
          "name": "isExist",
          "type": "bool"
        },
        {
          "indexed": false,
          "name": "certCount",
          "type": "uint256"
        }
      ],
      "name": "logUser",
      "type": "event"
    },
    {
      "anonymous": false,
      "inputs": [
        {
          "indexed": false,
          "name": "_userID",
          "type": "bytes32"
        },
        {
          "indexed": false,
          "name": "_certHash",
          "type": "bytes32"
        },
        {
          "indexed": false,
          "name": "_provider",
          "type": "bytes"
        },
        {
          "indexed": false,
          "name": "_ownerSignatures",
          "type": "bytes"
        }
      ],
      "name": "logCert",
      "type": "event"
    },
    {
      "anonymous": false,
      "inputs": [
        {
          "indexed": false,
          "name": "",
          "type": "string"
        }
      ],
      "name": "logMessage",
      "type": "event"
    },
    {
      "anonymous": false,
      "inputs": [
        {
          "indexed": true,
          "name": "previousOwner",
          "type": "address"
        },
        {
          "indexed": true,
          "name": "newOwner",
          "type": "address"
        }
      ],
      "name": "OwnershipTransferred",
      "type": "event"
    }
  ],
  "bytecode": "0x6060604052336000806101000a81548173ffffffffffffffffffffffffffffffffffffffff021916908373ffffffffffffffffffffffffffffffffffffffff160217905550611550806100536000396000f300606060405260043610610083576000357c0100000000000000000000000000000000000000000000000000000000900463ffffffff168063152f8331146100885780631e2d3056146100bc57806360ecb9d8146100fc57806382b5dcc7146101235780638da5cb5b146101dd578063ec6ff8bd14610232578063f2fde38b14610322575b600080fd5b341561009357600080fd5b6100ba6004808035600019169060200190919080356000191690602001909190505061035b565b005b34156100c757600080fd5b6100fa6004808035600019169060200190919080356000191690602001909190803560ff1690602001909190505061066b565b005b341561010757600080fd5b61012160048080356000191690602001909190505061082c565b005b341561012e57600080fd5b6101db6004808035600019169060200190919080356000191690602001909190803590602001908201803590602001908080601f0160208091040260200160405190810160405280939291908181526020018383808284378201915050505050509190803590602001908201803590602001908080601f0160208091040260200160405190810160405280939291908181526020018383808284378201915050505050509190505061094f565b005b34156101e857600080fd5b6101f0610d6f565b604051808273ffffffffffffffffffffffffffffffffffffffff1673ffffffffffffffffffffffffffffffffffffffff16815260200191505060405180910390f35b341561023d57600080fd5b610320600480803590602001908201803590602001908080601f0160208091040260200160405190810160405280939291908181526020018383808284378201915050505050509190803590602001908201803590602001908080601f0160208091040260200160405190810160405280939291908181526020018383808284378201915050505050509190803590602001908201803590602001908080601f0160208091040260200160405190810160405280939291908181526020018383808284378201915050505050509190803560001916906020019091905050610d94565b005b341561032d57600080fd5b610359600480803573ffffffffffffffffffffffffffffffffffffffff16906020019091905050611200565b005b6000827f7c990052ff7017db6da0c658c0fe7be85f832d1995d7c93f87bf7fd4f8fa711d60405180806020018281038252600a8152602001807f557365722065786973740000000000000000000000000000000000000000000081525060200191505060405180910390a160016000826000191660001916815260200190815260200160002060030160009054906101000a900460ff1615156103fd57600080fd5b60006001600086600019166000191681526020019081526020016000206005016000856000191660001916815260200190815260200160002060000160009054906101000a900460ff1660ff161415156105fc576001600085600019166000191681526020019081526020016000206005016000846000191660001916815260200190815260200160002091507fb9f1c31c548a7ae0e9e9c30636ce2d39ece5b5fb372621592f58435e8526314a8483600101548460020185600301604051808560001916600019168152602001846000191660001916815260200180602001806020018381038352858181546001816001161561010002031660029004815260200191508054600181600116156101000203166002900480156105625780601f1061053757610100808354040283529160200191610562565b820191906000526020600020905b81548152906001019060200180831161054557829003601f168201915b50508381038252848181546001816001161561010002031660029004815260200191508054600181600116156101000203166002900480156105e55780601f106105ba576101008083540402835291602001916105e5565b820191906000526020600020905b8154815290600101906020018083116105c857829003601f168201915b5050965050505050505060405180910390a1610665565b7f7c990052ff7017db6da0c658c0fe7be85f832d1995d7c93f87bf7fd4f8fa711d6040518080602001828103825260158152602001807f4365727469666963617465206e6f74206578697374000000000000000000000081525060200191505060405180910390a15b50505050565b827f7c990052ff7017db6da0c658c0fe7be85f832d1995d7c93f87bf7fd4f8fa711d60405180806020018281038252600a8152602001807f557365722065786973740000000000000000000000000000000000000000000081525060200191505060405180910390a160016000826000191660001916815260200190815260200160002060030160009054906101000a900460ff16151561070b57600080fd5b6000809054906101000a900473ffffffffffffffffffffffffffffffffffffffff1673ffffffffffffffffffffffffffffffffffffffff163373ffffffffffffffffffffffffffffffffffffffff1614151561076657600080fd5b60008260ff161415151561077957600080fd5b60006001600086600019166000191681526020019081526020016000206005016000856000191660001916815260200190815260200160002060000160009054906101000a900460ff1660ff16141515156107d357600080fd5b816001600086600019166000191681526020019081526020016000206005016000856000191660001916815260200190815260200160002060000160006101000a81548160ff021916908360ff16021790555050505050565b600080827f7c990052ff7017db6da0c658c0fe7be85f832d1995d7c93f87bf7fd4f8fa711d60405180806020018281038252600a8152602001807f557365722065786973740000000000000000000000000000000000000000000081525060200191505060405180910390a160016000826000191660001916815260200190815260200160002060030160009054906101000a900460ff1615156108cf57600080fd5b5b60016000856000191660001916815260200190815260200160002060060180549050831015610949576001600085600019166000191681526020019081526020016000206006018381548110151561092457fe5b906000526020600020900154915061093c848361035b565b82806001019350506108d0565b50505050565b600080857f7c990052ff7017db6da0c658c0fe7be85f832d1995d7c93f87bf7fd4f8fa711d60405180806020018281038252600a8152602001807f557365722065786973740000000000000000000000000000000000000000000081525060200191505060405180910390a160016000826000191660001916815260200190815260200160002060030160009054906101000a900460ff1615156109f257600080fd5b6000809054906101000a900473ffffffffffffffffffffffffffffffffffffffff1673ffffffffffffffffffffffffffffffffffffffff163373ffffffffffffffffffffffffffffffffffffffff16141515610a4d57600080fd5b60016000886000191660001916815260200190815260200160002092506000836005016000886000191660001916815260200190815260200160002060000160009054906101000a900460ff1660ff16141515610aa957600080fd5b8582600101816000191690555084826002019080519060200190610ace929190611355565b5083826003019080519060200190610ae7929190611355565b5060018260000160006101000a81548160ff021916908360ff1602179055508183600501600088600019166000191681526020019081526020016000206000820160009054906101000a900460ff168160000160006101000a81548160ff021916908360ff1602179055506001820154816001019060001916905560028201816002019080546001816001161561010002031660029004610b899291906113d5565b5060038201816003019080546001816001161561010002031660029004610bb19291906113d5565b50905050826006018054806001018281610bcb919061145c565b916000526020600020900160008890919091509060001916905550600183600401600082825401925050819055507fb9f1c31c548a7ae0e9e9c30636ce2d39ece5b5fb372621592f58435e8526314a878360010154846002018560030160405180856000191660001916815260200184600019166000191681526020018060200180602001838103835285818154600181600116156101000203166002900481526020019150805460018160011615610100020316600290048015610cd15780601f10610ca657610100808354040283529160200191610cd1565b820191906000526020600020905b815481529060010190602001808311610cb457829003601f168201915b5050838103825284818154600181600116156101000203166002900481526020019150805460018160011615610100020316600290048015610d545780601f10610d2957610100808354040283529160200191610d54565b820191906000526020600020905b815481529060010190602001808311610d3757829003601f168201915b5050965050505050505060405180910390a150505050505050565b6000809054906101000a900473ffffffffffffffffffffffffffffffffffffffff1681565b6000817f7c990052ff7017db6da0c658c0fe7be85f832d1995d7c93f87bf7fd4f8fa711d60405180806020018281038252600e8152602001807f55736572206e6f7420657869737400000000000000000000000000000000000081525060200191505060405180910390a160016000826000191660001916815260200190815260200160002060030160009054906101000a900460ff16151515610e3757600080fd5b6000809054906101000a900473ffffffffffffffffffffffffffffffffffffffff1673ffffffffffffffffffffffffffffffffffffffff163373ffffffffffffffffffffffffffffffffffffffff16141515610e9257600080fd5b85826000019080519060200190610eaa929190611355565b5084826001019080519060200190610ec3929190611355565b5083826002019080519060200190610edc929190611355565b506000826004018190555060018260030160006101000a81548160ff0219169083151502179055508160016000856000191660001916815260200190815260200160002060008201816000019080546001816001161561010002031660029004610f479291906113d5565b5060018201816001019080546001816001161561010002031660029004610f6f9291906113d5565b5060028201816002019080546001816001161561010002031660029004610f979291906113d5565b506003820160009054906101000a900460ff168160030160006101000a81548160ff021916908315150217905550600482015481600401556006820181600601908054610fe5929190611488565b509050507f51775cb2cf43881829b94f835a5d4747fe33e34763fb7a3f20f965b23cf108c3838360000184600101856002018660030160009054906101000a900460ff168760040154604051808760001916600019168152602001806020018060200180602001861515151581526020018581526020018481038452898181546001816001161561010002031660029004815260200191508054600181600116156101000203166002900480156110dd5780601f106110b2576101008083540402835291602001916110dd565b820191906000526020600020905b8154815290600101906020018083116110c057829003601f168201915b50508481038352888181546001816001161561010002031660029004815260200191508054600181600116156101000203166002900480156111605780601f1061113557610100808354040283529160200191611160565b820191906000526020600020905b81548152906001019060200180831161114357829003601f168201915b50508481038252878181546001816001161561010002031660029004815260200191508054600181600116156101000203166002900480156111e35780601f106111b8576101008083540402835291602001916111e3565b820191906000526020600020905b8154815290600101906020018083116111c657829003601f168201915b5050995050505050505050505060405180910390a1505050505050565b6000809054906101000a900473ffffffffffffffffffffffffffffffffffffffff1673ffffffffffffffffffffffffffffffffffffffff163373ffffffffffffffffffffffffffffffffffffffff1614151561125b57600080fd5b600073ffffffffffffffffffffffffffffffffffffffff168173ffffffffffffffffffffffffffffffffffffffff161415151561129757600080fd5b8073ffffffffffffffffffffffffffffffffffffffff166000809054906101000a900473ffffffffffffffffffffffffffffffffffffffff1673ffffffffffffffffffffffffffffffffffffffff167f8be0079c531659141344cd1fd0a4f28419497f9722a3daafe3b4186f6b6457e060405160405180910390a3806000806101000a81548173ffffffffffffffffffffffffffffffffffffffff021916908373ffffffffffffffffffffffffffffffffffffffff16021790555050565b828054600181600116156101000203166002900490600052602060002090601f016020900481019282601f1061139657805160ff19168380011785556113c4565b828001600101855582156113c4579182015b828111156113c35782518255916020019190600101906113a8565b5b5090506113d191906114da565b5090565b828054600181600116156101000203166002900490600052602060002090601f016020900481019282601f1061140e578054855561144b565b8280016001018555821561144b57600052602060002091601f016020900482015b8281111561144a57825482559160010191906001019061142f565b5b50905061145891906114da565b5090565b8154818355818115116114835781836000526020600020918201910161148291906114ff565b5b505050565b8280548282559060005260206000209081019282156114c95760005260206000209182015b828111156114c85782548255916001019190600101906114ad565b5b5090506114d691906114ff565b5090565b6114fc91905b808211156114f85760008160009055506001016114e0565b5090565b90565b61152191905b8082111561151d576000816000905550600101611505565b5090565b905600a165627a7a7230582039fe782c81eb5abb86a65d576e183c142fc0825bd6e88ba60f9b6e631431aff40029",
  "source": "pragma solidity ^0.4.11;\n\nimport 'zeppelin-solidity/contracts/ownership/Ownable.sol';\n\ncontract Wallet is Ownable {\n    // Name\n    // Date Of Birth\n    // Social Security Number\n    // Public Key (Address of User Account) (Optional)\n    struct User {\n        bytes name;\n        bytes dOB;\n        bytes SSN;\n        bool isExist;\n        uint certCount;\n        mapping (bytes32 => Certificate) certificates;\n        bytes32[] certID;\n    }\n    // State:  0 -> not initialize, 1 -> active, 2 -> inactive\n    struct Certificate {\n        uint8 state;\n\n        bytes32 certHash;\n        bytes provider;\n        bytes ownerSignatures;\n    }\n    mapping (bytes32 => User) userID;\n    \n    event logUser(bytes32 _userID, bytes _name, bytes _dOB, bytes _SSN, bool isExist, uint certCount);\n    event logCert(bytes32 _userID, bytes32 _certHash, bytes _provider, bytes _ownerSignatures);\n    event logMessage(string);\n    // Check if user exist or not\n    modifier userExist(bytes32 _userID){\n        logMessage(\"User exist\");\n        require(userID[_userID].isExist);\n        _;\n    }\n    modifier userNotExist(bytes32 _userID){\n        logMessage(\"User not exist\");\n        require(!userID[_userID].isExist);\n        _;\n    }\n    // Create new user and import PII (personal identifiable information)\n    function createUser(bytes _name, bytes _dOB, bytes _SSN, bytes32 _userID) userNotExist(_userID) onlyOwner {\n        User user;\n        user.name = _name;\n        user.dOB = _dOB;\n        user.SSN = _SSN;\n        user.certCount = 0;\n        user.isExist = true;\n        userID[_userID] = user;\n        logUser(_userID, user.name, user.dOB, user.SSN, user.isExist, user.certCount);\n    }\n\n    // create new certificates and import to user's wallet\n    // Only owner can update\n    // Check user exist\n    // certificate must not exsit\n    function createCertificate(bytes32 _userID, bytes32 _certHash, bytes _provider, bytes _ownerSignatures) userExist(_userID) onlyOwner {\n        User user = userID[_userID];\n        require(user.certificates[_certHash].state == 0);\n        Certificate certificate;\n        certificate.certHash = _certHash;\n        certificate.provider = _provider;\n        certificate.ownerSignatures = _ownerSignatures;\n        certificate.state = 1;\n        user.certificates[_certHash] = certificate;\n        user.certID.push(_certHash);\n        user.certCount += 1;\n        logCert(_userID, certificate.certHash, certificate.provider, certificate.ownerSignatures);\n    }\n\n    // update user's certifacte state\n    // Only owner can update\n    // Check state != 0\n    // Check user exist\n    // Check certificate exsit\n    function updateCertState(bytes32 _userID, bytes32 _certHash, uint8 state) userExist(_userID) onlyOwner {\n        require(state != 0);\n        require(userID[_userID].certificates[_certHash].state != 0);\n        userID[_userID].certificates[_certHash].state = state;\n    }\n    // Query certificate information using userID and certHash\n    function queryCertificates(bytes32 _userID, bytes32 _certHash)  userExist(_userID) public {\n        // certificate exsits\n        if (userID[_userID].certificates[_certHash].state != 0) {\n            Certificate certificate = userID[_userID].certificates[_certHash];\n            logCert(_userID, certificate.certHash, certificate.provider, certificate.ownerSignatures);\n        }        \n        else // certificate doesn't exsit\n            logMessage(\"Certificate not exist\");\n    }\n    // Query certificate information using userID\n    function queryCertificates(bytes32 _userID)  userExist(_userID) public {\n        for(uint i; i < userID[_userID].certID.length; i++) {\n            bytes32 _certHash = userID[_userID].certID[i];\n            queryCertificates(_userID, _certHash);\n        }\n    }\n}",
  "sourcePath": "/Users/hungngo/Documents/Blockchain/IBL/Project/Certificate/code/v1.0/contracts/Wallet_1.sol",
  "compiler": {
    "name": "solc",
    "version": "0.4.18+commit.9cf6e910.Emscripten.clang"
  },
  "schemaVersion": "1.0.1",
  "updatedAt": "2018-03-29T18:05:26.518Z"
}