{
  "contractName": "CVSSLedger",
  "abi": [
    {
      "constant": true,
      "inputs": [
        {
          "name": "",
          "type": "bytes16"
        }
      ],
      "name": "mapIssuer",
      "outputs": [
        {
          "name": "",
          "type": "bytes16"
        }
      ],
      "payable": false,
      "stateMutability": "view",
      "type": "function"
    },
    {
      "constant": true,
      "inputs": [
        {
          "name": "",
          "type": "bytes16"
        }
      ],
      "name": "mapUser",
      "outputs": [
        {
          "name": "",
          "type": "bytes16"
        }
      ],
      "payable": false,
      "stateMutability": "view",
      "type": "function"
    },
    {
      "constant": true,
      "inputs": [],
      "name": "owner",
      "outputs": [
        {
          "name": "",
          "type": "address"
        }
      ],
      "payable": false,
      "stateMutability": "view",
      "type": "function"
    },
    {
      "constant": true,
      "inputs": [
        {
          "name": "",
          "type": "bytes16"
        },
        {
          "name": "",
          "type": "bytes16"
        }
      ],
      "name": "mapCertificates",
      "outputs": [
        {
          "name": "state",
          "type": "uint8"
        },
        {
          "name": "issuerPubkey",
          "type": "bytes16"
        },
        {
          "name": "certHash",
          "type": "bytes16"
        },
        {
          "name": "issuerSignature",
          "type": "bytes16"
        }
      ],
      "payable": false,
      "stateMutability": "view",
      "type": "function"
    },
    {
      "constant": false,
      "inputs": [
        {
          "name": "newOwner",
          "type": "address"
        }
      ],
      "name": "transferOwnership",
      "outputs": [],
      "payable": false,
      "stateMutability": "nonpayable",
      "type": "function"
    },
    {
      "anonymous": false,
      "inputs": [
        {
          "indexed": false,
          "name": "ownerHash",
          "type": "bytes16"
        },
        {
          "indexed": false,
          "name": "userName",
          "type": "bytes16"
        },
        {
          "indexed": false,
          "name": "issuerPubkey",
          "type": "bytes16"
        },
        {
          "indexed": false,
          "name": "issuerSignature",
          "type": "bytes16"
        },
        {
          "indexed": false,
          "name": "certHash",
          "type": "bytes16"
        }
      ],
      "name": "AddCertificate",
      "type": "event"
    },
    {
      "anonymous": false,
      "inputs": [
        {
          "indexed": false,
          "name": "issuerPubkey",
          "type": "bytes16"
        },
        {
          "indexed": false,
          "name": "issuerName",
          "type": "bytes16"
        }
      ],
      "name": "RegisterIssuer",
      "type": "event"
    },
    {
      "anonymous": false,
      "inputs": [
        {
          "indexed": false,
          "name": "userHash",
          "type": "bytes16"
        },
        {
          "indexed": false,
          "name": "userName",
          "type": "bytes16"
        }
      ],
      "name": "RegisterUser",
      "type": "event"
    },
    {
      "anonymous": false,
      "inputs": [
        {
          "indexed": false,
          "name": "",
          "type": "string"
        }
      ],
      "name": "LogMessage",
      "type": "event"
    },
    {
      "anonymous": false,
      "inputs": [
        {
          "indexed": false,
          "name": "userHash",
          "type": "bytes16"
        }
      ],
      "name": "DeleteUser",
      "type": "event"
    },
    {
      "anonymous": false,
      "inputs": [
        {
          "indexed": false,
          "name": "issuerPubkey",
          "type": "bytes16"
        }
      ],
      "name": "DeleteIssuer",
      "type": "event"
    },
    {
      "anonymous": false,
      "inputs": [
        {
          "indexed": true,
          "name": "previousOwner",
          "type": "address"
        },
        {
          "indexed": true,
          "name": "newOwner",
          "type": "address"
        }
      ],
      "name": "OwnershipTransferred",
      "type": "event"
    },
    {
      "constant": false,
      "inputs": [
        {
          "name": "userHash",
          "type": "bytes16"
        },
        {
          "name": "issuerPubkey",
          "type": "bytes16"
        },
        {
          "name": "issuerSignature",
          "type": "bytes16"
        },
        {
          "name": "certHash",
          "type": "bytes16"
        }
      ],
      "name": "addCertificate",
      "outputs": [],
      "payable": false,
      "stateMutability": "nonpayable",
      "type": "function"
    },
    {
      "constant": false,
      "inputs": [
        {
          "name": "issuerPubkey",
          "type": "bytes16"
        },
        {
          "name": "issuerName",
          "type": "bytes16"
        }
      ],
      "name": "registerIssuer",
      "outputs": [],
      "payable": false,
      "stateMutability": "nonpayable",
      "type": "function"
    },
    {
      "constant": false,
      "inputs": [
        {
          "name": "issuerPubkey",
          "type": "bytes16"
        }
      ],
      "name": "deleteIssuer",
      "outputs": [],
      "payable": false,
      "stateMutability": "nonpayable",
      "type": "function"
    },
    {
      "constant": false,
      "inputs": [
        {
          "name": "userHash",
          "type": "bytes16"
        },
        {
          "name": "userName",
          "type": "bytes16"
        }
      ],
      "name": "registerUser",
      "outputs": [],
      "payable": false,
      "stateMutability": "nonpayable",
      "type": "function"
    },
    {
      "constant": false,
      "inputs": [
        {
          "name": "userHash",
          "type": "bytes16"
        }
      ],
      "name": "deleteUser",
      "outputs": [],
      "payable": false,
      "stateMutability": "nonpayable",
      "type": "function"
    }
  ],
  "bytecode": "0x6080604052336000806101000a81548173ffffffffffffffffffffffffffffffffffffffff021916908373ffffffffffffffffffffffffffffffffffffffff1602179055506110c6806100536000396000f3006080604052600436106100a4576000357c0100000000000000000000000000000000000000000000000000000000900463ffffffff16806308979c04146100a95780630c68c320146101065780632e062b7b146101465780633df64814146101dd5780638d062a97146102575780638da5cb5b146102d1578063e5ddd01814610328578063f2fde38b14610426578063f4bed68314610469578063feb0ad0c146104a9575b600080fd5b3480156100b557600080fd5b5061010460048036038101908080356fffffffffffffffffffffffffffffffff1916906020019092919080356fffffffffffffffffffffffffffffffff19169060200190929190505050610506565b005b34801561011257600080fd5b5061014460048036038101908080356fffffffffffffffffffffffffffffffff19169060200190929190505050610662565b005b34801561015257600080fd5b506101db60048036038101908080356fffffffffffffffffffffffffffffffff1916906020019092919080356fffffffffffffffffffffffffffffffff1916906020019092919080356fffffffffffffffffffffffffffffffff1916906020019092919080356fffffffffffffffffffffffffffffffff19169060200190929190505050610775565b005b3480156101e957600080fd5b5061021b60048036038101908080356fffffffffffffffffffffffffffffffff19169060200190929190505050610b4b565b60405180826fffffffffffffffffffffffffffffffff19166fffffffffffffffffffffffffffffffff1916815260200191505060405180910390f35b34801561026357600080fd5b5061029560048036038101908080356fffffffffffffffffffffffffffffffff19169060200190929190505050610b7b565b60405180826fffffffffffffffffffffffffffffffff19166fffffffffffffffffffffffffffffffff1916815260200191505060405180910390f35b3480156102dd57600080fd5b506102e6610bab565b604051808273ffffffffffffffffffffffffffffffffffffffff1673ffffffffffffffffffffffffffffffffffffffff16815260200191505060405180910390f35b34801561033457600080fd5b5061038360048036038101908080356fffffffffffffffffffffffffffffffff1916906020019092919080356fffffffffffffffffffffffffffffffff19169060200190929190505050610bd0565b604051808560ff1660ff168152602001846fffffffffffffffffffffffffffffffff19166fffffffffffffffffffffffffffffffff19168152602001836fffffffffffffffffffffffffffffffff19166fffffffffffffffffffffffffffffffff19168152602001826fffffffffffffffffffffffffffffffff19166fffffffffffffffffffffffffffffffff1916815260200194505050505060405180910390f35b34801561043257600080fd5b50610467600480360381019080803573ffffffffffffffffffffffffffffffffffffffff169060200190929190505050610c71565b005b34801561047557600080fd5b506104a760048036038101908080356fffffffffffffffffffffffffffffffff19169060200190929190505050610dc6565b005b3480156104b557600080fd5b5061050460048036038101908080356fffffffffffffffffffffffffffffffff1916906020019092919080356fffffffffffffffffffffffffffffffff19169060200190929190505050610ed9565b005b6000809054906101000a900473ffffffffffffffffffffffffffffffffffffffff1673ffffffffffffffffffffffffffffffffffffffff163373ffffffffffffffffffffffffffffffffffffffff1614151561056157600080fd5b8060036000846fffffffffffffffffffffffffffffffff19166fffffffffffffffffffffffffffffffff1916815260200190815260200160002060006101000a8154816fffffffffffffffffffffffffffffffff0219169083700100000000000000000000000000000000900402179055507f9b21b6908b280cbf86da6da1528f67428f9abf8636232121549602081265458c828260405180836fffffffffffffffffffffffffffffffff19166fffffffffffffffffffffffffffffffff19168152602001826fffffffffffffffffffffffffffffffff19166fffffffffffffffffffffffffffffffff191681526020019250505060405180910390a15050565b6000809054906101000a900473ffffffffffffffffffffffffffffffffffffffff1673ffffffffffffffffffffffffffffffffffffffff163373ffffffffffffffffffffffffffffffffffffffff161415156106bd57600080fd5b60026000826fffffffffffffffffffffffffffffffff19166fffffffffffffffffffffffffffffffff1916815260200190815260200160002060006101000a8154906fffffffffffffffffffffffffffffffff02191690557faee39d32bddabd621d47a1f0cc8f53e184e2e2566a7a74f80b1f73dcbebdfe748160405180826fffffffffffffffffffffffffffffffff19166fffffffffffffffffffffffffffffffff1916815260200191505060405180910390a150565b61077d611035565b6000809054906101000a900473ffffffffffffffffffffffffffffffffffffffff1673ffffffffffffffffffffffffffffffffffffffff163373ffffffffffffffffffffffffffffffffffffffff161415156107d857600080fd5b6001816000019060ff16908160ff16815250508381602001906fffffffffffffffffffffffffffffffff191690816fffffffffffffffffffffffffffffffff1916815250508281606001906fffffffffffffffffffffffffffffffff191690816fffffffffffffffffffffffffffffffff1916815250508181604001906fffffffffffffffffffffffffffffffff191690816fffffffffffffffffffffffffffffffff1916815250508060016000876fffffffffffffffffffffffffffffffff19166fffffffffffffffffffffffffffffffff191681526020019081526020016000206000846fffffffffffffffffffffffffffffffff19166fffffffffffffffffffffffffffffffff1916815260200190815260200160002060008201518160000160006101000a81548160ff021916908360ff16021790555060208201518160000160016101000a8154816fffffffffffffffffffffffffffffffff02191690837001000000000000000000000000000000009004021790555060408201518160010160006101000a8154816fffffffffffffffffffffffffffffffff02191690837001000000000000000000000000000000009004021790555060608201518160010160106101000a8154816fffffffffffffffffffffffffffffffff0219169083700100000000000000000000000000000000900402179055509050507f43c8126c77144cb91ff9207311ebc28c4d7ffb865a6550834f43123583d9b4b18560036000886fffffffffffffffffffffffffffffffff19166fffffffffffffffffffffffffffffffff1916815260200190815260200160002060009054906101000a90047001000000000000000000000000000000000286868660405180866fffffffffffffffffffffffffffffffff19166fffffffffffffffffffffffffffffffff19168152602001856fffffffffffffffffffffffffffffffff19166fffffffffffffffffffffffffffffffff19168152602001846fffffffffffffffffffffffffffffffff19166fffffffffffffffffffffffffffffffff19168152602001836fffffffffffffffffffffffffffffffff19166fffffffffffffffffffffffffffffffff19168152602001826fffffffffffffffffffffffffffffffff19166fffffffffffffffffffffffffffffffff191681526020019550505050505060405180910390a15050505050565b60026020528060005260406000206000915054906101000a90047001000000000000000000000000000000000281565b60036020528060005260406000206000915054906101000a90047001000000000000000000000000000000000281565b6000809054906101000a900473ffffffffffffffffffffffffffffffffffffffff1681565b6001602052816000526040600020602052806000526040600020600091509150508060000160009054906101000a900460ff16908060000160019054906101000a900470010000000000000000000000000000000002908060010160009054906101000a900470010000000000000000000000000000000002908060010160109054906101000a900470010000000000000000000000000000000002905084565b6000809054906101000a900473ffffffffffffffffffffffffffffffffffffffff1673ffffffffffffffffffffffffffffffffffffffff163373ffffffffffffffffffffffffffffffffffffffff16141515610ccc57600080fd5b600073ffffffffffffffffffffffffffffffffffffffff168173ffffffffffffffffffffffffffffffffffffffff1614151515610d0857600080fd5b8073ffffffffffffffffffffffffffffffffffffffff166000809054906101000a900473ffffffffffffffffffffffffffffffffffffffff1673ffffffffffffffffffffffffffffffffffffffff167f8be0079c531659141344cd1fd0a4f28419497f9722a3daafe3b4186f6b6457e060405160405180910390a3806000806101000a81548173ffffffffffffffffffffffffffffffffffffffff021916908373ffffffffffffffffffffffffffffffffffffffff16021790555050565b6000809054906101000a900473ffffffffffffffffffffffffffffffffffffffff1673ffffffffffffffffffffffffffffffffffffffff163373ffffffffffffffffffffffffffffffffffffffff16141515610e2157600080fd5b60036000826fffffffffffffffffffffffffffffffff19166fffffffffffffffffffffffffffffffff1916815260200190815260200160002060006101000a8154906fffffffffffffffffffffffffffffffff02191690557f996b5a28b1bba7fddd327d8510086b1fea8f6d083388214710db297144a49c168160405180826fffffffffffffffffffffffffffffffff19166fffffffffffffffffffffffffffffffff1916815260200191505060405180910390a150565b6000809054906101000a900473ffffffffffffffffffffffffffffffffffffffff1673ffffffffffffffffffffffffffffffffffffffff163373ffffffffffffffffffffffffffffffffffffffff16141515610f3457600080fd5b8060026000846fffffffffffffffffffffffffffffffff19166fffffffffffffffffffffffffffffffff1916815260200190815260200160002060006101000a8154816fffffffffffffffffffffffffffffffff0219169083700100000000000000000000000000000000900402179055507f096e67fb31ef9e2baa50e5512d6f25856384e99eaf27ba0dbf88294a1ec55ce6828260405180836fffffffffffffffffffffffffffffffff19166fffffffffffffffffffffffffffffffff19168152602001826fffffffffffffffffffffffffffffffff19166fffffffffffffffffffffffffffffffff191681526020019250505060405180910390a15050565b608060405190810160405280600060ff16815260200160006fffffffffffffffffffffffffffffffff1916815260200160006fffffffffffffffffffffffffffffffff1916815260200160006fffffffffffffffffffffffffffffffff1916815250905600a165627a7a723058203003489c0df9dea6d6702fa14e2a52fb04fcb220a8e55647e5e434378026981a0029",
  "source": "pragma solidity ^0.4.18;\nimport './Ownable.sol';\n\ncontract CVSSLedger is Ownable {\n    // State:  0 -> not initialize, 1 -> active, 2 -> inactive\n    struct Certificate {\n        uint8 state;\n        bytes16 issuerPubkey;\n        bytes16 certHash;\n        bytes16 issuerSignature;\n    }\n    \n    // Dictionary: userHash => List of user's certificates (Dictionary: certHash => Certificate)\n    mapping (bytes16 => mapping(bytes16 => Certificate)) public mapCertificates;\n\n    // Dictionary: issuerHash => issuerName\n    mapping (bytes16 => bytes16) public mapIssuer;\n    \n    // Dictionary: userHash => userHash\n    mapping (bytes16 => bytes16) public mapUser;\n    \n    event AddCertificate(bytes16 ownerHash, bytes16 userName, bytes16 issuerPubkey, bytes16 issuerSignature, bytes16 certHash);\n    event RegisterIssuer(bytes16 issuerPubkey, bytes16 issuerName);\n    event RegisterUser(bytes16 userHash, bytes16 userName);\n    event LogMessage(string);\n    event DeleteUser(bytes16 userHash);\n    event DeleteIssuer(bytes16 issuerPubkey);\n    modifier isUser(bytes16 userHash) {\n        require(mapUser[userHash] != bytes16(0));\n        _;\n    }\n    modifier isIssuer(bytes16 issuerPubkey) {\n        require(mapIssuer[issuerPubkey] != bytes16(0));\n        _;\n    }  \n    // Output:\n    // Generate new instance of Certificate \n    // Put new instance to certificate list in mapCertificates\n    function addCertificate(bytes16 userHash, bytes16 issuerPubkey, bytes16 issuerSignature, bytes16 certHash) public onlyOwner {\n        Certificate memory certificate;\n        certificate.state = 1;\n        certificate.issuerPubkey = issuerPubkey;\n        certificate.issuerSignature = issuerSignature;\n        certificate.certHash = certHash;\n        mapCertificates[userHash][certHash] = certificate;\n        AddCertificate(userHash, mapUser[userHash], issuerPubkey, issuerSignature, certHash);\n    }\n\n    // Output: Put new key-value to mapIssuer\n    function registerIssuer(bytes16 issuerPubkey, bytes16 issuerName) public onlyOwner {\n        mapIssuer[issuerPubkey] = issuerName;\n        RegisterIssuer(issuerPubkey, issuerName);\n    }\n    function deleteIssuer(bytes16 issuerPubkey) public onlyOwner {\n        delete mapIssuer[issuerPubkey];\n        DeleteIssuer(issuerPubkey);\n    }\n    // Output: map hash of user to hash of name\n    function registerUser(bytes16 userHash, bytes16 userName) public onlyOwner{\n        mapUser[userHash] = userName;\n        RegisterUser(userHash, userName);\n    }\n    function deleteUser(bytes16 userHash) public onlyOwner {\n        delete mapUser[userHash];\n        DeleteUser(userHash);\n    }\n\n}  ",
  "sourcePath": "/Users/hungngo/Documents/Blockchain/Project/Certificate/cvss/contracts/CVSSLedger.outdated.sol",
  "compiler": {
    "name": "solc",
    "version": "0.4.23+commit.124ca40d.Emscripten.clang"
  },
  "schemaVersion": "2.0.0",
  "updatedAt": "2018-06-12T18:41:55.225Z"
}