{
  "contractName": "Issuer",
  "abi": [
    {
      "constant": true,
      "inputs": [],
      "name": "taxNumber",
      "outputs": [
        {
          "name": "",
          "type": "string"
        }
      ],
      "payable": false,
      "stateMutability": "view",
      "type": "function"
    },
    {
      "constant": true,
      "inputs": [],
      "name": "name",
      "outputs": [
        {
          "name": "",
          "type": "string"
        }
      ],
      "payable": false,
      "stateMutability": "view",
      "type": "function"
    },
    {
      "constant": true,
      "inputs": [],
      "name": "issuerHash",
      "outputs": [
        {
          "name": "",
          "type": "string"
        }
      ],
      "payable": false,
      "stateMutability": "view",
      "type": "function"
    },
    {
      "constant": true,
      "inputs": [],
      "name": "email",
      "outputs": [
        {
          "name": "",
          "type": "string"
        }
      ],
      "payable": false,
      "stateMutability": "view",
      "type": "function"
    },
    {
      "constant": true,
      "inputs": [],
      "name": "owner",
      "outputs": [
        {
          "name": "",
          "type": "address"
        }
      ],
      "payable": false,
      "stateMutability": "view",
      "type": "function"
    },
    {
      "constant": true,
      "inputs": [],
      "name": "addressPlace",
      "outputs": [
        {
          "name": "",
          "type": "string"
        }
      ],
      "payable": false,
      "stateMutability": "view",
      "type": "function"
    },
    {
      "constant": true,
      "inputs": [],
      "name": "mobilePhone",
      "outputs": [
        {
          "name": "",
          "type": "string"
        }
      ],
      "payable": false,
      "stateMutability": "view",
      "type": "function"
    },
    {
      "constant": true,
      "inputs": [],
      "name": "website",
      "outputs": [
        {
          "name": "",
          "type": "string"
        }
      ],
      "payable": false,
      "stateMutability": "view",
      "type": "function"
    },
    {
      "constant": true,
      "inputs": [],
      "name": "issuerType",
      "outputs": [
        {
          "name": "",
          "type": "string"
        }
      ],
      "payable": false,
      "stateMutability": "view",
      "type": "function"
    },
    {
      "constant": false,
      "inputs": [
        {
          "name": "newOwner",
          "type": "address"
        }
      ],
      "name": "transferOwnership",
      "outputs": [],
      "payable": false,
      "stateMutability": "nonpayable",
      "type": "function"
    },
    {
      "inputs": [
        {
          "name": "_name",
          "type": "string"
        },
        {
          "name": "_taxNumber",
          "type": "string"
        },
        {
          "name": "_mobilePhone",
          "type": "string"
        },
        {
          "name": "_email",
          "type": "string"
        },
        {
          "name": "_issuerHash",
          "type": "string"
        }
      ],
      "payable": false,
      "stateMutability": "nonpayable",
      "type": "constructor"
    },
    {
      "anonymous": false,
      "inputs": [
        {
          "indexed": false,
          "name": "name",
          "type": "string"
        },
        {
          "indexed": false,
          "name": "taxNumber",
          "type": "string"
        },
        {
          "indexed": false,
          "name": "mobilePhone",
          "type": "string"
        },
        {
          "indexed": false,
          "name": "email",
          "type": "string"
        },
        {
          "indexed": false,
          "name": "issuerHash",
          "type": "string"
        }
      ],
      "name": "IssuerCreated",
      "type": "event"
    },
    {
      "anonymous": false,
      "inputs": [
        {
          "indexed": false,
          "name": "addressPlace",
          "type": "string"
        },
        {
          "indexed": false,
          "name": "website",
          "type": "string"
        },
        {
          "indexed": false,
          "name": "issuerType",
          "type": "string"
        }
      ],
      "name": "MoreInformationAdded",
      "type": "event"
    },
    {
      "anonymous": false,
      "inputs": [
        {
          "indexed": true,
          "name": "previousOwner",
          "type": "address"
        },
        {
          "indexed": true,
          "name": "newOwner",
          "type": "address"
        }
      ],
      "name": "OwnershipTransferred",
      "type": "event"
    },
    {
      "constant": false,
      "inputs": [
        {
          "name": "_addressPlace",
          "type": "string"
        },
        {
          "name": "_website",
          "type": "string"
        },
        {
          "name": "_issuerType",
          "type": "string"
        }
      ],
      "name": "addMoreInformation",
      "outputs": [],
      "payable": false,
      "stateMutability": "nonpayable",
      "type": "function"
    }
  ],
  "bytecode": "0x60806040523480156200001157600080fd5b506040516200145d3803806200145d8339810180604052810190808051820192919060200180518201929190602001805182019291906020018051820192919060200180518201929190505050336000806101000a81548173ffffffffffffffffffffffffffffffffffffffff021916908373ffffffffffffffffffffffffffffffffffffffff1602179055508460019080519060200190620000b692919062000385565b508360029080519060200190620000cf92919062000385565b508260039080519060200190620000e892919062000385565b5081600490805190602001906200010192919062000385565b5080600590805190602001906200011a92919062000385565b507fd6827a7dfb71a31ed9ddc80e81f938aacad993c7d9a6c332d99fbac73d77651d858585858560405180806020018060200180602001806020018060200186810386528b818151815260200191508051906020019080838360005b838110156200019357808201518184015260208101905062000176565b50505050905090810190601f168015620001c15780820380516001836020036101000a031916815260200191505b5086810385528a818151815260200191508051906020019080838360005b83811015620001fc578082015181840152602081019050620001df565b50505050905090810190601f1680156200022a5780820380516001836020036101000a031916815260200191505b50868103845289818151815260200191508051906020019080838360005b838110156200026557808201518184015260208101905062000248565b50505050905090810190601f168015620002935780820380516001836020036101000a031916815260200191505b50868103835288818151815260200191508051906020019080838360005b83811015620002ce578082015181840152602081019050620002b1565b50505050905090810190601f168015620002fc5780820380516001836020036101000a031916815260200191505b50868103825287818151815260200191508051906020019080838360005b83811015620003375780820151818401526020810190506200031a565b50505050905090810190601f168015620003655780820380516001836020036101000a031916815260200191505b509a505050505050505050505060405180910390a1505050505062000434565b828054600181600116156101000203166002900490600052602060002090601f016020900481019282601f10620003c857805160ff1916838001178555620003f9565b82800160010185558215620003f9579182015b82811115620003f8578251825591602001919060010190620003db565b5b5090506200040891906200040c565b5090565b6200043191905b808211156200042d57600081600090555060010162000413565b5090565b90565b61101980620004446000396000f3006080604052600436106100af576000357c0100000000000000000000000000000000000000000000000000000000900463ffffffff1680630285468e146100b457806306fdde03146101445780630cafa7f2146101d45780634b104af214610264578063820e93f5146103595780638da5cb5b146103e957806396b275fc1461044057806396f2fa8b146104d0578063beb0a41614610560578063cbcf17da146105f0578063f2fde38b14610680575b600080fd5b3480156100c057600080fd5b506100c96106c3565b6040518080602001828103825283818151815260200191508051906020019080838360005b838110156101095780820151818401526020810190506100ee565b50505050905090810190601f1680156101365780820380516001836020036101000a031916815260200191505b509250505060405180910390f35b34801561015057600080fd5b50610159610761565b6040518080602001828103825283818151815260200191508051906020019080838360005b8381101561019957808201518184015260208101905061017e565b50505050905090810190601f1680156101c65780820380516001836020036101000a031916815260200191505b509250505060405180910390f35b3480156101e057600080fd5b506101e96107ff565b6040518080602001828103825283818151815260200191508051906020019080838360005b8381101561022957808201518184015260208101905061020e565b50505050905090810190601f1680156102565780820380516001836020036101000a031916815260200191505b509250505060405180910390f35b34801561027057600080fd5b50610357600480360381019080803590602001908201803590602001908080601f0160208091040260200160405190810160405280939291908181526020018383808284378201915050505050509192919290803590602001908201803590602001908080601f0160208091040260200160405190810160405280939291908181526020018383808284378201915050505050509192919290803590602001908201803590602001908080601f016020809104026020016040519081016040528093929190818152602001838380828437820191505050505050919291929050505061089d565b005b34801561036557600080fd5b5061036e610ab8565b6040518080602001828103825283818151815260200191508051906020019080838360005b838110156103ae578082015181840152602081019050610393565b50505050905090810190601f1680156103db5780820380516001836020036101000a031916815260200191505b509250505060405180910390f35b3480156103f557600080fd5b506103fe610b56565b604051808273ffffffffffffffffffffffffffffffffffffffff1673ffffffffffffffffffffffffffffffffffffffff16815260200191505060405180910390f35b34801561044c57600080fd5b50610455610b7b565b6040518080602001828103825283818151815260200191508051906020019080838360005b8381101561049557808201518184015260208101905061047a565b50505050905090810190601f1680156104c25780820380516001836020036101000a031916815260200191505b509250505060405180910390f35b3480156104dc57600080fd5b506104e5610c19565b6040518080602001828103825283818151815260200191508051906020019080838360005b8381101561052557808201518184015260208101905061050a565b50505050905090810190601f1680156105525780820380516001836020036101000a031916815260200191505b509250505060405180910390f35b34801561056c57600080fd5b50610575610cb7565b6040518080602001828103825283818151815260200191508051906020019080838360005b838110156105b557808201518184015260208101905061059a565b50505050905090810190601f1680156105e25780820380516001836020036101000a031916815260200191505b509250505060405180910390f35b3480156105fc57600080fd5b50610605610d55565b6040518080602001828103825283818151815260200191508051906020019080838360005b8381101561064557808201518184015260208101905061062a565b50505050905090810190601f1680156106725780820380516001836020036101000a031916815260200191505b509250505060405180910390f35b34801561068c57600080fd5b506106c1600480360381019080803573ffffffffffffffffffffffffffffffffffffffff169060200190929190505050610df3565b005b60028054600181600116156101000203166002900480601f0160208091040260200160405190810160405280929190818152602001828054600181600116156101000203166002900480156107595780601f1061072e57610100808354040283529160200191610759565b820191906000526020600020905b81548152906001019060200180831161073c57829003601f168201915b505050505081565b60018054600181600116156101000203166002900480601f0160208091040260200160405190810160405280929190818152602001828054600181600116156101000203166002900480156107f75780601f106107cc576101008083540402835291602001916107f7565b820191906000526020600020905b8154815290600101906020018083116107da57829003601f168201915b505050505081565b60058054600181600116156101000203166002900480601f0160208091040260200160405190810160405280929190818152602001828054600181600116156101000203166002900480156108955780601f1061086a57610100808354040283529160200191610895565b820191906000526020600020905b81548152906001019060200180831161087857829003601f168201915b505050505081565b6000809054906101000a900473ffffffffffffffffffffffffffffffffffffffff1673ffffffffffffffffffffffffffffffffffffffff163373ffffffffffffffffffffffffffffffffffffffff161415156108f857600080fd5b826006908051906020019061090e929190610f48565b508160079080519060200190610925929190610f48565b50806008908051906020019061093c929190610f48565b507f15867bccefee2db70d30b59e6c1a4b69c1b2e47b89f3b8cac62d727e8d1fb3c983838360405180806020018060200180602001848103845287818151815260200191508051906020019080838360005b838110156109a957808201518184015260208101905061098e565b50505050905090810190601f1680156109d65780820380516001836020036101000a031916815260200191505b50848103835286818151815260200191508051906020019080838360005b83811015610a0f5780820151818401526020810190506109f4565b50505050905090810190601f168015610a3c5780820380516001836020036101000a031916815260200191505b50848103825285818151815260200191508051906020019080838360005b83811015610a75578082015181840152602081019050610a5a565b50505050905090810190601f168015610aa25780820380516001836020036101000a031916815260200191505b50965050505050505060405180910390a1505050565b60048054600181600116156101000203166002900480601f016020809104026020016040519081016040528092919081815260200182805460018160011615610100020316600290048015610b4e5780601f10610b2357610100808354040283529160200191610b4e565b820191906000526020600020905b815481529060010190602001808311610b3157829003601f168201915b505050505081565b6000809054906101000a900473ffffffffffffffffffffffffffffffffffffffff1681565b60068054600181600116156101000203166002900480601f016020809104026020016040519081016040528092919081815260200182805460018160011615610100020316600290048015610c115780601f10610be657610100808354040283529160200191610c11565b820191906000526020600020905b815481529060010190602001808311610bf457829003601f168201915b505050505081565b60038054600181600116156101000203166002900480601f016020809104026020016040519081016040528092919081815260200182805460018160011615610100020316600290048015610caf5780601f10610c8457610100808354040283529160200191610caf565b820191906000526020600020905b815481529060010190602001808311610c9257829003601f168201915b505050505081565b60078054600181600116156101000203166002900480601f016020809104026020016040519081016040528092919081815260200182805460018160011615610100020316600290048015610d4d5780601f10610d2257610100808354040283529160200191610d4d565b820191906000526020600020905b815481529060010190602001808311610d3057829003601f168201915b505050505081565b60088054600181600116156101000203166002900480601f016020809104026020016040519081016040528092919081815260200182805460018160011615610100020316600290048015610deb5780601f10610dc057610100808354040283529160200191610deb565b820191906000526020600020905b815481529060010190602001808311610dce57829003601f168201915b505050505081565b6000809054906101000a900473ffffffffffffffffffffffffffffffffffffffff1673ffffffffffffffffffffffffffffffffffffffff163373ffffffffffffffffffffffffffffffffffffffff16141515610e4e57600080fd5b600073ffffffffffffffffffffffffffffffffffffffff168173ffffffffffffffffffffffffffffffffffffffff1614151515610e8a57600080fd5b8073ffffffffffffffffffffffffffffffffffffffff166000809054906101000a900473ffffffffffffffffffffffffffffffffffffffff1673ffffffffffffffffffffffffffffffffffffffff167f8be0079c531659141344cd1fd0a4f28419497f9722a3daafe3b4186f6b6457e060405160405180910390a3806000806101000a81548173ffffffffffffffffffffffffffffffffffffffff021916908373ffffffffffffffffffffffffffffffffffffffff16021790555050565b828054600181600116156101000203166002900490600052602060002090601f016020900481019282601f10610f8957805160ff1916838001178555610fb7565b82800160010185558215610fb7579182015b82811115610fb6578251825591602001919060010190610f9b565b5b509050610fc49190610fc8565b5090565b610fea91905b80821115610fe6576000816000905550600101610fce565b5090565b905600a165627a7a7230582040797b81a9bddea4c5a7a32a503d41acd91531c300dbb5684d4a5158a1a8b9470029",
  "source": "pragma solidity ^0.4.18;\n\nimport './Ownable.sol';\n\n/*\n * @title Issuer Contract \n * @author CVSS\n */\ncontract Issuer is Ownable {\n    string public name;\n    string public taxNumber;\n    string public mobilePhone;\n    string public email;\n    string public issuerHash;\n    string public addressPlace;\n    string public website;\n    string public issuerType;\n    \n    event IssuerCreated(string name, string taxNumber, string mobilePhone, string email, string issuerHash);\n    event MoreInformationAdded(string addressPlace, string website, string issuerType);\n    \n    constructor (string _name, string _taxNumber, string _mobilePhone, string _email, \n       string _issuerHash) public {\n        name = _name;\n        taxNumber = _taxNumber;\n        mobilePhone = _mobilePhone;\n        email = _email;\n        issuerHash = _issuerHash;\n        emit IssuerCreated(_name, _taxNumber, _mobilePhone, _email, _issuerHash);\n    }\n    function addMoreInformation(string _addressPlace, string _website, string _issuerType)\n    public\n    onlyOwner\n    {\n        addressPlace = _addressPlace;\n        website = _website;\n        issuerType = _issuerType;\n        emit MoreInformationAdded(_addressPlace, _website, _issuerType);\n    }\n}\n/*\n * @title Student Contract \n * @author CVSS\n */\ncontract Student is Ownable {\n    // State: 1 -> active, 2 -> inactive\n    struct Certificate {\n        uint8 state;\n        address issuerAddress;\n        bytes32 certHash;\n    }\n     // Dictionary: userHash => List of user's certificates (Dictionary: certHash => Certificate)\n    mapping(bytes32 => Certificate) public mapCertificates;\n    bytes32[] public certificatesList;\n    event CertificateAdded(address issuerAddress, bytes32 certHash);\n    event CertificateDeactivated(bytes32 certHash);\n    event CertificateActivated(bytes32 certHash);\n    event CertificateDeleted(bytes32 certHash);\n    modifier isAllow(bytes32 certHash)\n    {\n        require(msg.sender == owner || msg.sender == mapCertificates[certHash].issuerAddress);\n        _;\n    }\n    constructor () public {}\n    function addCertificate(address issuerAddress, bytes32 certHash) \n    public \n    {\n        Certificate memory certificate;\n        certificate.state = 1;\n        certificate.issuerAddress = issuerAddress;\n        certificate.certHash = certHash;\n        mapCertificates[certHash] = certificate;\n        certificatesList.push(certHash);\n        emit CertificateAdded(issuerAddress, certHash);\n    }\n    function deactivateCertificate(bytes32 certHash)\n    public\n    isAllow(certHash)\n    {\n        mapCertificates[certHash].state = 2;\n        emit CertificateDeactivated(certHash);\n    }\n    function activateCertificate(bytes32 certHash)\n    public\n    {\n        require(mapCertificates[certHash].issuerAddress == msg.sender);\n        require(mapCertificates[certHash].state == 1);\n        mapCertificates[certHash].state = 1;\n        emit CertificateActivated(certHash);\n    }\n    function deleteCertificate(bytes32 certHash)\n    public\n    isAllow(certHash)\n    {\n        delete mapCertificates[certHash];\n        for(uint i = 0; i < certificatesList.length; i++){\n            if (certificatesList[i] == certHash){\n                delete certificatesList[i];\n                break;\n            }\n        }\n        emit CertificateDeleted(certHash);\n    }\n}\n/*\n * @title System contract\n * @author CVSS\n */\ncontract System is Ownable{\n    address[] public issuerAddresses;\n    // mapping address of issuerEOA to issuerContract\n    mapping(address => address) mapIssuer;\n\n    address[] public studentAddresses;\n    // mapping address of student to studentContract\n    mapping(address => address) mapStudent;\n    constructor () public {}\n    event IssuerAdded(address issuerAddress);\n    event IssuerContractChanged(address issuerAddress, address oldIssuerContract, address newIssuerContract);\n    event StudentAdded(address studentAddress);\n    event StudentContractChanged(address studentAddress, address oldStudentContract, address newStudentContract);\n    function addIssuer(address issuerAddress)\n    public\n    onlyOwner\n    {\n        issuerAddresses.push(issuerAddress);\n        emit IssuerAdded(issuerAddress);\n        emit IssuerContractChanged(issuerAddress, address(0), address(0));\n    }\n       \n    function changeIssuerContract(address issuerAddress, address issuerContract)\n    public\n    onlyOwner\n    {\n        address oldIssuerContract = mapIssuer[issuerAddress];\n        mapIssuer[issuerAddress] = issuerContract;\n        emit IssuerContractChanged(issuerAddress, oldIssuerContract, issuerContract);\n    }\n\n    function addStudent(address studentAddress)\n    public\n    onlyOwner\n    {\n        studentAddresses.push(studentAddress);\n        emit StudentAdded(studentAddress);\n        emit StudentContractChanged(studentAddress, address(0), address(0));\n    }\n       \n    function changeStudentContract(address studentAddress, address studentContract)\n    public\n    onlyOwner\n    {\n        address oldStudentAddress = mapStudent[studentAddress];\n        mapStudent[studentAddress] = studentContract;\n        emit StudentContractChanged(studentAddress, oldStudentAddress, studentContract);\n    }\n}",
  "sourcePath": "/Users/hungngo/Documents/Blockchain/Project/Certificate/smartcontract-backup/contracts/CVSS.sol",
  "compiler": {
    "name": "solc",
    "version": "0.4.23+commit.124ca40d.Emscripten.clang"
  },
  "schemaVersion": "2.0.0",
  "updatedAt": "2018-06-09T15:28:13.337Z"
}