{
  "contractName": "Issuer",
  "abi": [
    {
      "constant": true,
      "inputs": [],
      "name": "taxNumber",
      "outputs": [
        {
          "name": "",
          "type": "string"
        }
      ],
      "payable": false,
      "stateMutability": "view",
      "type": "function"
    },
    {
      "constant": true,
      "inputs": [],
      "name": "name",
      "outputs": [
        {
          "name": "",
          "type": "string"
        }
      ],
      "payable": false,
      "stateMutability": "view",
      "type": "function"
    },
    {
      "constant": true,
      "inputs": [],
      "name": "email",
      "outputs": [
        {
          "name": "",
          "type": "string"
        }
      ],
      "payable": false,
      "stateMutability": "view",
      "type": "function"
    },
    {
      "constant": true,
      "inputs": [],
      "name": "owner",
      "outputs": [
        {
          "name": "",
          "type": "address"
        }
      ],
      "payable": false,
      "stateMutability": "view",
      "type": "function"
    },
    {
      "constant": true,
      "inputs": [],
      "name": "addressPlace",
      "outputs": [
        {
          "name": "",
          "type": "string"
        }
      ],
      "payable": false,
      "stateMutability": "view",
      "type": "function"
    },
    {
      "constant": true,
      "inputs": [],
      "name": "mobilePhone",
      "outputs": [
        {
          "name": "",
          "type": "string"
        }
      ],
      "payable": false,
      "stateMutability": "view",
      "type": "function"
    },
    {
      "constant": true,
      "inputs": [],
      "name": "website",
      "outputs": [
        {
          "name": "",
          "type": "string"
        }
      ],
      "payable": false,
      "stateMutability": "view",
      "type": "function"
    },
    {
      "constant": false,
      "inputs": [
        {
          "name": "newOwner",
          "type": "address"
        }
      ],
      "name": "transferOwnership",
      "outputs": [],
      "payable": false,
      "stateMutability": "nonpayable",
      "type": "function"
    },
    {
      "inputs": [
        {
          "name": "_name",
          "type": "string"
        },
        {
          "name": "_taxNumber",
          "type": "string"
        },
        {
          "name": "_mobilePhone",
          "type": "string"
        },
        {
          "name": "_email",
          "type": "string"
        },
        {
          "name": "_addressPlace",
          "type": "string"
        },
        {
          "name": "_website",
          "type": "string"
        }
      ],
      "payable": false,
      "stateMutability": "nonpayable",
      "type": "constructor"
    },
    {
      "anonymous": false,
      "inputs": [
        {
          "indexed": false,
          "name": "name",
          "type": "string"
        },
        {
          "indexed": false,
          "name": "taxNumber",
          "type": "string"
        },
        {
          "indexed": false,
          "name": "mobilePhone",
          "type": "string"
        },
        {
          "indexed": false,
          "name": "email",
          "type": "string"
        },
        {
          "indexed": false,
          "name": "addressPlace",
          "type": "string"
        },
        {
          "indexed": false,
          "name": "website",
          "type": "string"
        }
      ],
      "name": "IssuerCreated",
      "type": "event"
    },
    {
      "anonymous": false,
      "inputs": [
        {
          "indexed": true,
          "name": "previousOwner",
          "type": "address"
        },
        {
          "indexed": true,
          "name": "newOwner",
          "type": "address"
        }
      ],
      "name": "OwnershipTransferred",
      "type": "event"
    }
  ],
  "bytecode": "0x60806040523480156200001157600080fd5b5060405162000ebf38038062000ebf833981018060405281019080805182019291906020018051820192919060200180518201929190602001805182019291906020018051820192919060200180518201929190505050336000806101000a81548173ffffffffffffffffffffffffffffffffffffffff021916908373ffffffffffffffffffffffffffffffffffffffff1602179055508560019080519060200190620000c092919062000419565b508460029080519060200190620000d992919062000419565b508360039080519060200190620000f292919062000419565b5082600490805190602001906200010b92919062000419565b5081600590805190602001906200012492919062000419565b5080600690805190602001906200013d92919062000419565b507fa4642eca14da2a69f8cbbdffe75c2fa8656470eb003bd1ef89528a803fb88fe58686868686866040518080602001806020018060200180602001806020018060200187810387528d818151815260200191508051906020019080838360005b83811015620001bb5780820151818401526020810190506200019e565b50505050905090810190601f168015620001e95780820380516001836020036101000a031916815260200191505b5087810386528c818151815260200191508051906020019080838360005b838110156200022457808201518184015260208101905062000207565b50505050905090810190601f168015620002525780820380516001836020036101000a031916815260200191505b5087810385528b818151815260200191508051906020019080838360005b838110156200028d57808201518184015260208101905062000270565b50505050905090810190601f168015620002bb5780820380516001836020036101000a031916815260200191505b5087810384528a818151815260200191508051906020019080838360005b83811015620002f6578082015181840152602081019050620002d9565b50505050905090810190601f168015620003245780820380516001836020036101000a031916815260200191505b50878103835289818151815260200191508051906020019080838360005b838110156200035f57808201518184015260208101905062000342565b50505050905090810190601f1680156200038d5780820380516001836020036101000a031916815260200191505b50878103825288818151815260200191508051906020019080838360005b83811015620003c8578082015181840152602081019050620003ab565b50505050905090810190601f168015620003f65780820380516001836020036101000a031916815260200191505b509c5050505050505050505050505060405180910390a1505050505050620004c8565b828054600181600116156101000203166002900490600052602060002090601f016020900481019282601f106200045c57805160ff19168380011785556200048d565b828001600101855582156200048d579182015b828111156200048c5782518255916020019190600101906200046f565b5b5090506200049c9190620004a0565b5090565b620004c591905b80821115620004c1576000816000905550600101620004a7565b5090565b90565b6109e780620004d86000396000f30060806040526004361061008e576000357c0100000000000000000000000000000000000000000000000000000000900463ffffffff1680630285468e1461009357806306fdde0314610123578063820e93f5146101b35780638da5cb5b1461024357806396b275fc1461029a57806396f2fa8b1461032a578063beb0a416146103ba578063f2fde38b1461044a575b600080fd5b34801561009f57600080fd5b506100a861048d565b6040518080602001828103825283818151815260200191508051906020019080838360005b838110156100e85780820151818401526020810190506100cd565b50505050905090810190601f1680156101155780820380516001836020036101000a031916815260200191505b509250505060405180910390f35b34801561012f57600080fd5b5061013861052b565b6040518080602001828103825283818151815260200191508051906020019080838360005b8381101561017857808201518184015260208101905061015d565b50505050905090810190601f1680156101a55780820380516001836020036101000a031916815260200191505b509250505060405180910390f35b3480156101bf57600080fd5b506101c86105c9565b6040518080602001828103825283818151815260200191508051906020019080838360005b838110156102085780820151818401526020810190506101ed565b50505050905090810190601f1680156102355780820380516001836020036101000a031916815260200191505b509250505060405180910390f35b34801561024f57600080fd5b50610258610667565b604051808273ffffffffffffffffffffffffffffffffffffffff1673ffffffffffffffffffffffffffffffffffffffff16815260200191505060405180910390f35b3480156102a657600080fd5b506102af61068c565b6040518080602001828103825283818151815260200191508051906020019080838360005b838110156102ef5780820151818401526020810190506102d4565b50505050905090810190601f16801561031c5780820380516001836020036101000a031916815260200191505b509250505060405180910390f35b34801561033657600080fd5b5061033f61072a565b6040518080602001828103825283818151815260200191508051906020019080838360005b8381101561037f578082015181840152602081019050610364565b50505050905090810190601f1680156103ac5780820380516001836020036101000a031916815260200191505b509250505060405180910390f35b3480156103c657600080fd5b506103cf6107c8565b6040518080602001828103825283818151815260200191508051906020019080838360005b8381101561040f5780820151818401526020810190506103f4565b50505050905090810190601f16801561043c5780820380516001836020036101000a031916815260200191505b509250505060405180910390f35b34801561045657600080fd5b5061048b600480360381019080803573ffffffffffffffffffffffffffffffffffffffff169060200190929190505050610866565b005b60028054600181600116156101000203166002900480601f0160208091040260200160405190810160405280929190818152602001828054600181600116156101000203166002900480156105235780601f106104f857610100808354040283529160200191610523565b820191906000526020600020905b81548152906001019060200180831161050657829003601f168201915b505050505081565b60018054600181600116156101000203166002900480601f0160208091040260200160405190810160405280929190818152602001828054600181600116156101000203166002900480156105c15780601f10610596576101008083540402835291602001916105c1565b820191906000526020600020905b8154815290600101906020018083116105a457829003601f168201915b505050505081565b60048054600181600116156101000203166002900480601f01602080910402602001604051908101604052809291908181526020018280546001816001161561010002031660029004801561065f5780601f106106345761010080835404028352916020019161065f565b820191906000526020600020905b81548152906001019060200180831161064257829003601f168201915b505050505081565b6000809054906101000a900473ffffffffffffffffffffffffffffffffffffffff1681565b60058054600181600116156101000203166002900480601f0160208091040260200160405190810160405280929190818152602001828054600181600116156101000203166002900480156107225780601f106106f757610100808354040283529160200191610722565b820191906000526020600020905b81548152906001019060200180831161070557829003601f168201915b505050505081565b60038054600181600116156101000203166002900480601f0160208091040260200160405190810160405280929190818152602001828054600181600116156101000203166002900480156107c05780601f10610795576101008083540402835291602001916107c0565b820191906000526020600020905b8154815290600101906020018083116107a357829003601f168201915b505050505081565b60068054600181600116156101000203166002900480601f01602080910402602001604051908101604052809291908181526020018280546001816001161561010002031660029004801561085e5780601f106108335761010080835404028352916020019161085e565b820191906000526020600020905b81548152906001019060200180831161084157829003601f168201915b505050505081565b6000809054906101000a900473ffffffffffffffffffffffffffffffffffffffff1673ffffffffffffffffffffffffffffffffffffffff163373ffffffffffffffffffffffffffffffffffffffff161415156108c157600080fd5b600073ffffffffffffffffffffffffffffffffffffffff168173ffffffffffffffffffffffffffffffffffffffff16141515156108fd57600080fd5b8073ffffffffffffffffffffffffffffffffffffffff166000809054906101000a900473ffffffffffffffffffffffffffffffffffffffff1673ffffffffffffffffffffffffffffffffffffffff167f8be0079c531659141344cd1fd0a4f28419497f9722a3daafe3b4186f6b6457e060405160405180910390a3806000806101000a81548173ffffffffffffffffffffffffffffffffffffffff021916908373ffffffffffffffffffffffffffffffffffffffff160217905550505600a165627a7a7230582072fe81caa22b092ae774209428dc5c03d51de30cf4aaeb7d631c3eea44c64a900029",
  "source": "pragma solidity ^0.4.18;\n\nimport './Ownable.sol';\n\n/*\n * @title Issuer Contract \n * @author CVSS\n */\n // \"TTDT\", \"012345678\", \"08123123\", \"TTDT@gmail.com\", \"TTDT KIO8\", \"TTDT.com.vn\"\ncontract Issuer is Ownable {\n    string public name;\n    string public taxNumber;\n    string public mobilePhone;\n    string public email;\n    //string public issuerHash;\n    string public addressPlace;\n    string public website;\n    //string public issuerType;\n    \n    event IssuerCreated(string name, string taxNumber, string mobilePhone, string email, string addressPlace, string website);\n    \n    constructor (string _name, string _taxNumber, string _mobilePhone, string _email, \n       string _addressPlace, string _website) public {\n        name = _name;\n        taxNumber = _taxNumber;\n        mobilePhone = _mobilePhone;\n        email = _email;\n        addressPlace = _addressPlace;\n        website = _website;\n        emit IssuerCreated(_name, _taxNumber, _mobilePhone, _email, _addressPlace, _website);\n    }\n}",
  "sourcePath": "/Users/hungngo/Documents/Blockchain/Project/Certificate/cvss/contracts/Issuer.sol",
  "compiler": {
    "name": "solc",
    "version": "0.4.23+commit.124ca40d.Emscripten.clang"
  },
  "schemaVersion": "2.0.0",
  "updatedAt": "2018-06-12T18:30:43.709Z"
}