{
  "contractName": "Student",
  "abi": [
    {
      "constant": true,
      "inputs": [
        {
          "name": "",
          "type": "bytes32"
        }
      ],
      "name": "mapCertificates",
      "outputs": [
        {
          "name": "state",
          "type": "uint8"
        },
        {
          "name": "issuerAddress",
          "type": "address"
        },
        {
          "name": "certHash",
          "type": "bytes32"
        }
      ],
      "payable": false,
      "stateMutability": "view",
      "type": "function"
    },
    {
      "constant": true,
      "inputs": [
        {
          "name": "",
          "type": "uint256"
        }
      ],
      "name": "certificatesList",
      "outputs": [
        {
          "name": "",
          "type": "bytes32"
        }
      ],
      "payable": false,
      "stateMutability": "view",
      "type": "function"
    },
    {
      "constant": true,
      "inputs": [],
      "name": "owner",
      "outputs": [
        {
          "name": "",
          "type": "address"
        }
      ],
      "payable": false,
      "stateMutability": "view",
      "type": "function"
    },
    {
      "constant": false,
      "inputs": [
        {
          "name": "newOwner",
          "type": "address"
        }
      ],
      "name": "transferOwnership",
      "outputs": [],
      "payable": false,
      "stateMutability": "nonpayable",
      "type": "function"
    },
    {
      "inputs": [],
      "payable": false,
      "stateMutability": "nonpayable",
      "type": "constructor"
    },
    {
      "anonymous": false,
      "inputs": [
        {
          "indexed": false,
          "name": "issuerAddress",
          "type": "address"
        },
        {
          "indexed": false,
          "name": "certHash",
          "type": "bytes32"
        }
      ],
      "name": "CertificateAdded",
      "type": "event"
    },
    {
      "anonymous": false,
      "inputs": [
        {
          "indexed": false,
          "name": "certHash",
          "type": "bytes32"
        }
      ],
      "name": "CertificateDeactivated",
      "type": "event"
    },
    {
      "anonymous": false,
      "inputs": [
        {
          "indexed": false,
          "name": "certHash",
          "type": "bytes32"
        }
      ],
      "name": "CertificateActivated",
      "type": "event"
    },
    {
      "anonymous": false,
      "inputs": [
        {
          "indexed": false,
          "name": "certHash",
          "type": "bytes32"
        }
      ],
      "name": "CertificateDeleted",
      "type": "event"
    },
    {
      "anonymous": false,
      "inputs": [
        {
          "indexed": true,
          "name": "previousOwner",
          "type": "address"
        },
        {
          "indexed": true,
          "name": "newOwner",
          "type": "address"
        }
      ],
      "name": "OwnershipTransferred",
      "type": "event"
    },
    {
      "constant": false,
      "inputs": [
        {
          "name": "issuerAddress",
          "type": "address"
        },
        {
          "name": "certHash",
          "type": "bytes32"
        }
      ],
      "name": "addCertificate",
      "outputs": [],
      "payable": false,
      "stateMutability": "nonpayable",
      "type": "function"
    },
    {
      "constant": false,
      "inputs": [
        {
          "name": "certHash",
          "type": "bytes32"
        }
      ],
      "name": "deactivateCertificate",
      "outputs": [],
      "payable": false,
      "stateMutability": "nonpayable",
      "type": "function"
    },
    {
      "constant": false,
      "inputs": [
        {
          "name": "certHash",
          "type": "bytes32"
        }
      ],
      "name": "activateCertificate",
      "outputs": [],
      "payable": false,
      "stateMutability": "nonpayable",
      "type": "function"
    },
    {
      "constant": false,
      "inputs": [
        {
          "name": "certHash",
          "type": "bytes32"
        }
      ],
      "name": "deleteCertificate",
      "outputs": [],
      "payable": false,
      "stateMutability": "nonpayable",
      "type": "function"
    },
    {
      "constant": true,
      "inputs": [
        {
          "name": "certHash",
          "type": "bytes32"
        }
      ],
      "name": "viewCertificates",
      "outputs": [
        {
          "name": "",
          "type": "uint256"
        },
        {
          "name": "",
          "type": "address"
        },
        {
          "name": "",
          "type": "bytes32"
        }
      ],
      "payable": false,
      "stateMutability": "view",
      "type": "function"
    }
  ],
  "bytecode": "0x608060405234801561001057600080fd5b50336000806101000a81548173ffffffffffffffffffffffffffffffffffffffff021916908373ffffffffffffffffffffffffffffffffffffffff160217905550610c99806100606000396000f300608060405260043610610099576000357c0100000000000000000000000000000000000000000000000000000000900463ffffffff168063127746b91461009e5780633f40df20146100ef57806341a509a11461017c5780634b5a7c23146102035780635397a28c1461023457806355b0103c1461027d57806378097d18146102ae5780638da5cb5b146102df578063f2fde38b14610336575b600080fd5b3480156100aa57600080fd5b506100ed600480360381019080803573ffffffffffffffffffffffffffffffffffffffff1690602001909291908035600019169060200190929190505050610379565b005b3480156100fb57600080fd5b5061011e6004803603810190808035600019169060200190929190505050610521565b604051808460ff1660ff1681526020018373ffffffffffffffffffffffffffffffffffffffff1673ffffffffffffffffffffffffffffffffffffffff1681526020018260001916600019168152602001935050505060405180910390f35b34801561018857600080fd5b506101ab6004803603810190808035600019169060200190929190505050610578565b604051808481526020018373ffffffffffffffffffffffffffffffffffffffff1673ffffffffffffffffffffffffffffffffffffffff1681526020018260001916600019168152602001935050505060405180910390f35b34801561020f57600080fd5b5061023260048036038101908080356000191690602001909291905050506105fc565b005b34801561024057600080fd5b5061025f60048036038101908080359060200190929190505050610783565b60405180826000191660001916815260200191505060405180910390f35b34801561028957600080fd5b506102ac60048036038101908080356000191690602001909291905050506107a6565b005b3480156102ba57600080fd5b506102dd60048036038101908080356000191690602001909291905050506108d4565b005b3480156102eb57600080fd5b506102f4610ab5565b604051808273ffffffffffffffffffffffffffffffffffffffff1673ffffffffffffffffffffffffffffffffffffffff16815260200191505060405180910390f35b34801561034257600080fd5b50610377600480360381019080803573ffffffffffffffffffffffffffffffffffffffff169060200190929190505050610ada565b005b610381610c2f565b6001816000019060ff16908160ff168152505082816020019073ffffffffffffffffffffffffffffffffffffffff16908173ffffffffffffffffffffffffffffffffffffffff168152505081816040019060001916908160001916815250508060016000846000191660001916815260200190815260200160002060008201518160000160006101000a81548160ff021916908360ff16021790555060208201518160000160016101000a81548173ffffffffffffffffffffffffffffffffffffffff021916908373ffffffffffffffffffffffffffffffffffffffff1602179055506040820151816001019060001916905590505060028290806001815401808255809150509060018203906000526020600020016000909192909190915090600019169055507f99dd5c30be0142f9d38b4cd61a3d9ca91d06a29f57fd888955d8a7f1e69698b88383604051808373ffffffffffffffffffffffffffffffffffffffff1673ffffffffffffffffffffffffffffffffffffffff16815260200182600019166000191681526020019250505060405180910390a1505050565b60016020528060005260406000206000915090508060000160009054906101000a900460ff16908060000160019054906101000a900473ffffffffffffffffffffffffffffffffffffffff16908060010154905083565b600080600060016000856000191660001916815260200190815260200160002060000160009054906101000a900460ff1660016000866000191660001916815260200190815260200160002060000160019054906101000a900473ffffffffffffffffffffffffffffffffffffffff16858260ff1692509250925092509193909250565b806000809054906101000a900473ffffffffffffffffffffffffffffffffffffffff1673ffffffffffffffffffffffffffffffffffffffff163373ffffffffffffffffffffffffffffffffffffffff1614806106c1575060016000826000191660001916815260200190815260200160002060000160019054906101000a900473ffffffffffffffffffffffffffffffffffffffff1673ffffffffffffffffffffffffffffffffffffffff163373ffffffffffffffffffffffffffffffffffffffff16145b15156106cc57600080fd5b6001806000846000191660001916815260200190815260200160002060000160009054906101000a900460ff1660ff1614151561070857600080fd5b600260016000846000191660001916815260200190815260200160002060000160006101000a81548160ff021916908360ff1602179055507f854403d7a0c0d54b2877c838173db8f89fe2b55a4299a246b0b9c30822a3f8378260405180826000191660001916815260200191505060405180910390a15050565b60028181548110151561079257fe5b906000526020600020016000915090505481565b3373ffffffffffffffffffffffffffffffffffffffff1660016000836000191660001916815260200190815260200160002060000160019054906101000a900473ffffffffffffffffffffffffffffffffffffffff1673ffffffffffffffffffffffffffffffffffffffff1614151561081e57600080fd5b600260016000836000191660001916815260200190815260200160002060000160009054906101000a900460ff1660ff1614151561085b57600080fd5b6001806000836000191660001916815260200190815260200160002060000160006101000a81548160ff021916908360ff1602179055507fb3927791d13cddc65dfe315adca2d9ecc7de8d58ef206ff1f10164a3eaa907418160405180826000191660001916815260200191505060405180910390a150565b6000816000809054906101000a900473ffffffffffffffffffffffffffffffffffffffff1673ffffffffffffffffffffffffffffffffffffffff163373ffffffffffffffffffffffffffffffffffffffff16148061099b575060016000826000191660001916815260200190815260200160002060000160019054906101000a900473ffffffffffffffffffffffffffffffffffffffff1673ffffffffffffffffffffffffffffffffffffffff163373ffffffffffffffffffffffffffffffffffffffff16145b15156109a657600080fd5b600160008460001916600019168152602001908152602001600020600080820160006101000a81549060ff02191690556000820160016101000a81549073ffffffffffffffffffffffffffffffffffffffff021916905560018201600090555050600091505b600280549050821015610a71578260001916600283815481101515610a2d57fe5b9060005260206000200154600019161415610a6457600282815481101515610a5157fe5b9060005260206000200160009055610a71565b8180600101925050610a0c565b7f0666368f14141e0e20a18b0e940be8ae11bc7550c1756d0f22417f367be3d7a18360405180826000191660001916815260200191505060405180910390a1505050565b6000809054906101000a900473ffffffffffffffffffffffffffffffffffffffff1681565b6000809054906101000a900473ffffffffffffffffffffffffffffffffffffffff1673ffffffffffffffffffffffffffffffffffffffff163373ffffffffffffffffffffffffffffffffffffffff16141515610b3557600080fd5b600073ffffffffffffffffffffffffffffffffffffffff168173ffffffffffffffffffffffffffffffffffffffff1614151515610b7157600080fd5b8073ffffffffffffffffffffffffffffffffffffffff166000809054906101000a900473ffffffffffffffffffffffffffffffffffffffff1673ffffffffffffffffffffffffffffffffffffffff167f8be0079c531659141344cd1fd0a4f28419497f9722a3daafe3b4186f6b6457e060405160405180910390a3806000806101000a81548173ffffffffffffffffffffffffffffffffffffffff021916908373ffffffffffffffffffffffffffffffffffffffff16021790555050565b606060405190810160405280600060ff168152602001600073ffffffffffffffffffffffffffffffffffffffff1681526020016000801916815250905600a165627a7a72305820f3d3c88a082adf008d6eba00b2bb2b01194885d15f592dcf4adb7cdc47d215ac0029",
  "source": "pragma solidity ^0.4.18;\n\nimport './Ownable.sol';\n\n/*\n * @title Student Contract \n * @author CVSS\n */\ncontract Student is Ownable {\n    // State: 1 -> active, 2 -> inactive\n    struct Certificate {\n        uint8 state;\n        address issuerAddress;\n        bytes32 certHash;\n    }\n     // Dictionary: userHash => List of user's certificates (Dictionary: certHash => Certificate)\n    mapping(bytes32 => Certificate) public mapCertificates;\n    bytes32[] public certificatesList;\n    event CertificateAdded(address issuerAddress, bytes32 certHash);\n    event CertificateDeactivated(bytes32 certHash);\n    event CertificateActivated(bytes32 certHash);\n    event CertificateDeleted(bytes32 certHash);\n    modifier isAllow(bytes32 certHash)\n    {\n        require(msg.sender == owner || msg.sender == mapCertificates[certHash].issuerAddress);\n        _;\n    }\n    constructor () public {}\n    function addCertificate(address issuerAddress, bytes32 certHash) \n    public \n    {\n        Certificate memory certificate;\n        certificate.state = 1;\n        certificate.issuerAddress = issuerAddress;\n        certificate.certHash = certHash;\n        mapCertificates[certHash] = certificate;\n        certificatesList.push(certHash);\n        emit CertificateAdded(issuerAddress, certHash);\n    }\n    function deactivateCertificate(bytes32 certHash)\n    public\n    isAllow(certHash)\n    {\n        require(mapCertificates[certHash].state == 1);\n        mapCertificates[certHash].state = 2;\n        emit CertificateDeactivated(certHash);\n    }\n    function activateCertificate(bytes32 certHash)\n    public\n    {\n        require(mapCertificates[certHash].issuerAddress == msg.sender);\n        require(mapCertificates[certHash].state == 2);\n        mapCertificates[certHash].state = 1;\n        emit CertificateActivated(certHash);\n    }\n    function deleteCertificate(bytes32 certHash)\n    public\n    isAllow(certHash)\n    {\n        delete mapCertificates[certHash];\n        for(uint i = 0; i < certificatesList.length; i++){\n            if (certificatesList[i] == certHash){\n                delete certificatesList[i];\n                break;\n            }\n        }\n        emit CertificateDeleted(certHash);\n    }\n    function viewCertificates(bytes32 certHash) \n    public\n    view\n    returns (uint, address, bytes32)\n    {\n        return (mapCertificates[certHash].state, mapCertificates[certHash].issuerAddress, certHash);\n    }\n}",
  "sourcePath": "/Users/hungngo/Documents/Blockchain/Project/Certificate/cvss/contracts/Student.sol",
  "compiler": {
    "name": "solc",
    "version": "0.4.23+commit.124ca40d.Emscripten.clang"
  },
  "schemaVersion": "2.0.0",
  "updatedAt": "2018-06-12T18:30:43.713Z"
}