{
  "contractName": "Wallet",
  "abi": [
    {
      "constant": true,
      "inputs": [],
      "name": "owner",
      "outputs": [
        {
          "name": "",
          "type": "address"
        }
      ],
      "payable": false,
      "stateMutability": "view",
      "type": "function"
    },
    {
      "constant": false,
      "inputs": [
        {
          "name": "newOwner",
          "type": "address"
        }
      ],
      "name": "transferOwnership",
      "outputs": [],
      "payable": false,
      "stateMutability": "nonpayable",
      "type": "function"
    },
    {
      "anonymous": false,
      "inputs": [
        {
          "indexed": false,
          "name": "_userID",
          "type": "bytes32"
        },
        {
          "indexed": false,
          "name": "_name",
          "type": "bytes"
        },
        {
          "indexed": false,
          "name": "_dOB",
          "type": "bytes"
        },
        {
          "indexed": false,
          "name": "_SSN",
          "type": "bytes"
        },
        {
          "indexed": false,
          "name": "isExist",
          "type": "bool"
        },
        {
          "indexed": false,
          "name": "certCount",
          "type": "uint256"
        }
      ],
      "name": "logUser",
      "type": "event"
    },
    {
      "anonymous": false,
      "inputs": [
        {
          "indexed": false,
          "name": "_userID",
          "type": "bytes32"
        },
        {
          "indexed": false,
          "name": "_certHash",
          "type": "bytes32"
        },
        {
          "indexed": false,
          "name": "_provider",
          "type": "bytes"
        },
        {
          "indexed": false,
          "name": "_ownerSignatures",
          "type": "bytes"
        }
      ],
      "name": "logCert",
      "type": "event"
    },
    {
      "anonymous": false,
      "inputs": [
        {
          "indexed": false,
          "name": "",
          "type": "string"
        }
      ],
      "name": "logMessage",
      "type": "event"
    },
    {
      "anonymous": false,
      "inputs": [
        {
          "indexed": true,
          "name": "previousOwner",
          "type": "address"
        },
        {
          "indexed": true,
          "name": "newOwner",
          "type": "address"
        }
      ],
      "name": "OwnershipTransferred",
      "type": "event"
    },
    {
      "constant": false,
      "inputs": [
        {
          "name": "_name",
          "type": "bytes"
        },
        {
          "name": "_dOB",
          "type": "bytes"
        },
        {
          "name": "_SSN",
          "type": "bytes"
        },
        {
          "name": "_userID",
          "type": "bytes32"
        }
      ],
      "name": "createUser",
      "outputs": [],
      "payable": false,
      "stateMutability": "nonpayable",
      "type": "function"
    },
    {
      "constant": false,
      "inputs": [
        {
          "name": "_userID",
          "type": "bytes32"
        },
        {
          "name": "_certHash",
          "type": "bytes32"
        },
        {
          "name": "_provider",
          "type": "bytes"
        },
        {
          "name": "_ownerSignatures",
          "type": "bytes"
        }
      ],
      "name": "createCertificate",
      "outputs": [],
      "payable": false,
      "stateMutability": "nonpayable",
      "type": "function"
    },
    {
      "constant": false,
      "inputs": [
        {
          "name": "_userID",
          "type": "bytes32"
        },
        {
          "name": "_certHash",
          "type": "bytes32"
        },
        {
          "name": "state",
          "type": "uint8"
        }
      ],
      "name": "updateCertState",
      "outputs": [],
      "payable": false,
      "stateMutability": "nonpayable",
      "type": "function"
    },
    {
      "constant": false,
      "inputs": [
        {
          "name": "_userID",
          "type": "bytes32"
        },
        {
          "name": "_certHash",
          "type": "bytes32"
        }
      ],
      "name": "queryCertificates",
      "outputs": [],
      "payable": false,
      "stateMutability": "nonpayable",
      "type": "function"
    },
    {
      "constant": false,
      "inputs": [
        {
          "name": "_userID",
          "type": "bytes32"
        }
      ],
      "name": "queryCertificates",
      "outputs": [],
      "payable": false,
      "stateMutability": "nonpayable",
      "type": "function"
    }
  ],
  "bytecode": "0x6080604052336000806101000a81548173ffffffffffffffffffffffffffffffffffffffff021916908373ffffffffffffffffffffffffffffffffffffffff160217905550611577806100536000396000f300608060405260043610610083576000357c0100000000000000000000000000000000000000000000000000000000900463ffffffff168063152f8331146100885780631e2d3056146100c757806360ecb9d81461011357806382b5dcc7146101445780638da5cb5b1461020f578063ec6ff8bd14610266578063f2fde38b14610369575b600080fd5b34801561009457600080fd5b506100c5600480360381019080803560001916906020019092919080356000191690602001909291905050506103ac565b005b3480156100d357600080fd5b5061011160048036038101908080356000191690602001909291908035600019169060200190929190803560ff1690602001909291905050506106bc565b005b34801561011f57600080fd5b50610142600480360381019080803560001916906020019092919050505061087d565b005b34801561015057600080fd5b5061020d60048036038101908080356000191690602001909291908035600019169060200190929190803590602001908201803590602001908080601f0160208091040260200160405190810160405280939291908181526020018383808284378201915050505050509192919290803590602001908201803590602001908080601f016020809104026020016040519081016040528093929190818152602001838380828437820191505050505050919291929050505061099f565b005b34801561021b57600080fd5b50610224610dc2565b604051808273ffffffffffffffffffffffffffffffffffffffff1673ffffffffffffffffffffffffffffffffffffffff16815260200191505060405180910390f35b34801561027257600080fd5b50610367600480360381019080803590602001908201803590602001908080601f0160208091040260200160405190810160405280939291908181526020018383808284378201915050505050509192919290803590602001908201803590602001908080601f0160208091040260200160405190810160405280939291908181526020018383808284378201915050505050509192919290803590602001908201803590602001908080601f01602080910402602001604051908101604052809392919081815260200183838082843782019150505050505091929192908035600019169060200190929190505050610de7565b005b34801561037557600080fd5b506103aa600480360381019080803573ffffffffffffffffffffffffffffffffffffffff169060200190929190505050611253565b005b6000827f7c990052ff7017db6da0c658c0fe7be85f832d1995d7c93f87bf7fd4f8fa711d60405180806020018281038252600a8152602001807f557365722065786973740000000000000000000000000000000000000000000081525060200191505060405180910390a160016000826000191660001916815260200190815260200160002060030160009054906101000a900460ff16151561044e57600080fd5b60006001600086600019166000191681526020019081526020016000206005016000856000191660001916815260200190815260200160002060000160009054906101000a900460ff1660ff1614151561064d576001600085600019166000191681526020019081526020016000206005016000846000191660001916815260200190815260200160002091507fb9f1c31c548a7ae0e9e9c30636ce2d39ece5b5fb372621592f58435e8526314a8483600101548460020185600301604051808560001916600019168152602001846000191660001916815260200180602001806020018381038352858181546001816001161561010002031660029004815260200191508054600181600116156101000203166002900480156105b35780601f10610588576101008083540402835291602001916105b3565b820191906000526020600020905b81548152906001019060200180831161059657829003601f168201915b50508381038252848181546001816001161561010002031660029004815260200191508054600181600116156101000203166002900480156106365780601f1061060b57610100808354040283529160200191610636565b820191906000526020600020905b81548152906001019060200180831161061957829003601f168201915b5050965050505050505060405180910390a16106b6565b7f7c990052ff7017db6da0c658c0fe7be85f832d1995d7c93f87bf7fd4f8fa711d6040518080602001828103825260158152602001807f4365727469666963617465206e6f74206578697374000000000000000000000081525060200191505060405180910390a15b50505050565b827f7c990052ff7017db6da0c658c0fe7be85f832d1995d7c93f87bf7fd4f8fa711d60405180806020018281038252600a8152602001807f557365722065786973740000000000000000000000000000000000000000000081525060200191505060405180910390a160016000826000191660001916815260200190815260200160002060030160009054906101000a900460ff16151561075c57600080fd5b6000809054906101000a900473ffffffffffffffffffffffffffffffffffffffff1673ffffffffffffffffffffffffffffffffffffffff163373ffffffffffffffffffffffffffffffffffffffff161415156107b757600080fd5b60008260ff16141515156107ca57600080fd5b60006001600086600019166000191681526020019081526020016000206005016000856000191660001916815260200190815260200160002060000160009054906101000a900460ff1660ff161415151561082457600080fd5b816001600086600019166000191681526020019081526020016000206005016000856000191660001916815260200190815260200160002060000160006101000a81548160ff021916908360ff16021790555050505050565b600080827f7c990052ff7017db6da0c658c0fe7be85f832d1995d7c93f87bf7fd4f8fa711d60405180806020018281038252600a8152602001807f557365722065786973740000000000000000000000000000000000000000000081525060200191505060405180910390a160016000826000191660001916815260200190815260200160002060030160009054906101000a900460ff16151561092057600080fd5b5b60016000856000191660001916815260200190815260200160002060060180549050831015610999576001600085600019166000191681526020019081526020016000206006018381548110151561097557fe5b9060005260206000200154915061098c84836103ac565b8280600101935050610921565b50505050565b600080857f7c990052ff7017db6da0c658c0fe7be85f832d1995d7c93f87bf7fd4f8fa711d60405180806020018281038252600a8152602001807f557365722065786973740000000000000000000000000000000000000000000081525060200191505060405180910390a160016000826000191660001916815260200190815260200160002060030160009054906101000a900460ff161515610a4257600080fd5b6000809054906101000a900473ffffffffffffffffffffffffffffffffffffffff1673ffffffffffffffffffffffffffffffffffffffff163373ffffffffffffffffffffffffffffffffffffffff16141515610a9d57600080fd5b60016000886000191660001916815260200190815260200160002092506000836005016000886000191660001916815260200190815260200160002060000160009054906101000a900460ff1660ff16141515610af957600080fd5b8582600101816000191690555084826002019080519060200190610b1e9291906113a8565b5083826003019080519060200190610b379291906113a8565b5060018260000160006101000a81548160ff021916908360ff1602179055508183600501600088600019166000191681526020019081526020016000206000820160009054906101000a900460ff168160000160006101000a81548160ff021916908360ff1602179055506001820154816001019060001916905560028201816002019080546001816001161561010002031660029004610bd9929190611428565b5060038201816003019080546001816001161561010002031660029004610c01929190611428565b5090505082600601869080600181540180825580915050906001820390600052602060002001600090919290919091509060001916905550600183600401600082825401925050819055507fb9f1c31c548a7ae0e9e9c30636ce2d39ece5b5fb372621592f58435e8526314a878360010154846002018560030160405180856000191660001916815260200184600019166000191681526020018060200180602001838103835285818154600181600116156101000203166002900481526020019150805460018160011615610100020316600290048015610d245780601f10610cf957610100808354040283529160200191610d24565b820191906000526020600020905b815481529060010190602001808311610d0757829003601f168201915b5050838103825284818154600181600116156101000203166002900481526020019150805460018160011615610100020316600290048015610da75780601f10610d7c57610100808354040283529160200191610da7565b820191906000526020600020905b815481529060010190602001808311610d8a57829003601f168201915b5050965050505050505060405180910390a150505050505050565b6000809054906101000a900473ffffffffffffffffffffffffffffffffffffffff1681565b6000817f7c990052ff7017db6da0c658c0fe7be85f832d1995d7c93f87bf7fd4f8fa711d60405180806020018281038252600e8152602001807f55736572206e6f7420657869737400000000000000000000000000000000000081525060200191505060405180910390a160016000826000191660001916815260200190815260200160002060030160009054906101000a900460ff16151515610e8a57600080fd5b6000809054906101000a900473ffffffffffffffffffffffffffffffffffffffff1673ffffffffffffffffffffffffffffffffffffffff163373ffffffffffffffffffffffffffffffffffffffff16141515610ee557600080fd5b85826000019080519060200190610efd9291906113a8565b5084826001019080519060200190610f169291906113a8565b5083826002019080519060200190610f2f9291906113a8565b506000826004018190555060018260030160006101000a81548160ff0219169083151502179055508160016000856000191660001916815260200190815260200160002060008201816000019080546001816001161561010002031660029004610f9a929190611428565b5060018201816001019080546001816001161561010002031660029004610fc2929190611428565b5060028201816002019080546001816001161561010002031660029004610fea929190611428565b506003820160009054906101000a900460ff168160030160006101000a81548160ff0219169083151502179055506004820154816004015560068201816006019080546110389291906114af565b509050507f51775cb2cf43881829b94f835a5d4747fe33e34763fb7a3f20f965b23cf108c3838360000184600101856002018660030160009054906101000a900460ff168760040154604051808760001916600019168152602001806020018060200180602001861515151581526020018581526020018481038452898181546001816001161561010002031660029004815260200191508054600181600116156101000203166002900480156111305780601f1061110557610100808354040283529160200191611130565b820191906000526020600020905b81548152906001019060200180831161111357829003601f168201915b50508481038352888181546001816001161561010002031660029004815260200191508054600181600116156101000203166002900480156111b35780601f10611188576101008083540402835291602001916111b3565b820191906000526020600020905b81548152906001019060200180831161119657829003601f168201915b50508481038252878181546001816001161561010002031660029004815260200191508054600181600116156101000203166002900480156112365780601f1061120b57610100808354040283529160200191611236565b820191906000526020600020905b81548152906001019060200180831161121957829003601f168201915b5050995050505050505050505060405180910390a1505050505050565b6000809054906101000a900473ffffffffffffffffffffffffffffffffffffffff1673ffffffffffffffffffffffffffffffffffffffff163373ffffffffffffffffffffffffffffffffffffffff161415156112ae57600080fd5b600073ffffffffffffffffffffffffffffffffffffffff168173ffffffffffffffffffffffffffffffffffffffff16141515156112ea57600080fd5b8073ffffffffffffffffffffffffffffffffffffffff166000809054906101000a900473ffffffffffffffffffffffffffffffffffffffff1673ffffffffffffffffffffffffffffffffffffffff167f8be0079c531659141344cd1fd0a4f28419497f9722a3daafe3b4186f6b6457e060405160405180910390a3806000806101000a81548173ffffffffffffffffffffffffffffffffffffffff021916908373ffffffffffffffffffffffffffffffffffffffff16021790555050565b828054600181600116156101000203166002900490600052602060002090601f016020900481019282601f106113e957805160ff1916838001178555611417565b82800160010185558215611417579182015b828111156114165782518255916020019190600101906113fb565b5b5090506114249190611501565b5090565b828054600181600116156101000203166002900490600052602060002090601f016020900481019282601f10611461578054855561149e565b8280016001018555821561149e57600052602060002091601f016020900482015b8281111561149d578254825591600101919060010190611482565b5b5090506114ab9190611501565b5090565b8280548282559060005260206000209081019282156114f05760005260206000209182015b828111156114ef5782548255916001019190600101906114d4565b5b5090506114fd9190611526565b5090565b61152391905b8082111561151f576000816000905550600101611507565b5090565b90565b61154891905b8082111561154457600081600090555060010161152c565b5090565b905600a165627a7a72305820478e1fb86e436c72978fdb83e75a9912f063799f38d4a76b47edab4e0c00bf9b0029",
  "source": "pragma solidity ^0.4.11;\n\nimport 'zeppelin-solidity/contracts/ownership/Ownable.sol';\n\ncontract Wallet is Ownable {\n    // Name\n    // Date Of Birth\n    // Social Security Number\n    // Public Key (Address of User Account) (Optional)\n    struct User {\n        bytes name;\n        bytes dOB;\n        bytes SSN;\n        bool isExist;\n        uint certCount;\n        mapping (bytes32 => Certificate) certificates;\n        bytes32[] certID;\n    }\n    // State:  0 -> not initialize, 1 -> active, 2 -> inactive\n    struct Certificate {\n        uint8 state;\n\n        bytes32 certHash;\n        bytes provider;\n        bytes ownerSignatures;\n    }\n    mapping (bytes32 => User) userID;\n    \n    event logUser(bytes32 _userID, bytes _name, bytes _dOB, bytes _SSN, bool isExist, uint certCount);\n    event logCert(bytes32 _userID, bytes32 _certHash, bytes _provider, bytes _ownerSignatures);\n    event logMessage(string);\n    // Check if user exist or not\n    modifier userExist(bytes32 _userID){\n        logMessage(\"User exist\");\n        require(userID[_userID].isExist);\n        _;\n    }\n    modifier userNotExist(bytes32 _userID){\n        logMessage(\"User not exist\");\n        require(!userID[_userID].isExist);\n        _;\n    }\n    // Create new user and import PII (personal identifiable information)\n    function createUser(bytes _name, bytes _dOB, bytes _SSN, bytes32 _userID) userNotExist(_userID) onlyOwner {\n        User user;\n        user.name = _name;\n        user.dOB = _dOB;\n        user.SSN = _SSN;\n        user.certCount = 0;\n        user.isExist = true;\n        userID[_userID] = user;\n        logUser(_userID, user.name, user.dOB, user.SSN, user.isExist, user.certCount);\n    }\n\n    // create new certificates and import to user's wallet\n    // Only owner can update\n    // Check user exist\n    // certificate must not exsit\n    function createCertificate(bytes32 _userID, bytes32 _certHash, bytes _provider, bytes _ownerSignatures) userExist(_userID) onlyOwner {\n        User user = userID[_userID];\n        require(user.certificates[_certHash].state == 0);\n        Certificate certificate;\n        certificate.certHash = _certHash;\n        certificate.provider = _provider;\n        certificate.ownerSignatures = _ownerSignatures;\n        certificate.state = 1;\n        user.certificates[_certHash] = certificate;\n        user.certID.push(_certHash);\n        user.certCount += 1;\n        logCert(_userID, certificate.certHash, certificate.provider, certificate.ownerSignatures);\n    }\n\n    // update user's certifacte state\n    // Only owner can update\n    // Check state != 0\n    // Check user exist\n    // Check certificate exsit\n    function updateCertState(bytes32 _userID, bytes32 _certHash, uint8 state) userExist(_userID) onlyOwner {\n        require(state != 0);\n        require(userID[_userID].certificates[_certHash].state != 0);\n        userID[_userID].certificates[_certHash].state = state;\n    }\n    // Query certificate information using userID and certHash\n    function queryCertificates(bytes32 _userID, bytes32 _certHash)  userExist(_userID) public {\n        // certificate exsits\n        if (userID[_userID].certificates[_certHash].state != 0) {\n            Certificate certificate = userID[_userID].certificates[_certHash];\n            logCert(_userID, certificate.certHash, certificate.provider, certificate.ownerSignatures);\n        }        \n        else // certificate doesn't exsit\n            logMessage(\"Certificate not exist\");\n    }\n    // Query certificate information using userID\n    function queryCertificates(bytes32 _userID)  userExist(_userID) public {\n        for(uint i; i < userID[_userID].certID.length; i++) {\n            bytes32 _certHash = userID[_userID].certID[i];\n            queryCertificates(_userID, _certHash);\n        }\n    }\n}",
  "sourcePath": "/Users/hungngo/Documents/Blockchain/Project/Certificate/smartcontract-backup/contracts/Wallet_1.sol",
  "compiler": {
    "name": "solc",
    "version": "0.4.23+commit.124ca40d.Emscripten.clang"
  },
  "schemaVersion": "2.0.0",
  "updatedAt": "2018-06-09T15:00:36.166Z"
}